{"abi":[{"type":"constructor","inputs":[],"stateMutability":"nonpayable"},{"type":"function","name":"CALL_GUEST_ID","inputs":[],"outputs":[{"name":"","type":"bytes32","internalType":"bytes32"}],"stateMutability":"view"},{"type":"function","name":"PROOF_MODE","inputs":[],"outputs":[{"name":"","type":"uint8","internalType":"enum ProofMode"}],"stateMutability":"view"},{"type":"function","name":"VERIFIER","inputs":[],"outputs":[{"name":"","type":"address","internalType":"contract IRiscZeroVerifier"}],"stateMutability":"view"},{"type":"function","name":"call_guest_id","inputs":[],"outputs":[{"name":"","type":"bytes32","internalType":"bytes32"}],"stateMutability":"view"},{"type":"function","name":"verify","inputs":[{"name":"proof","type":"tuple","internalType":"struct Proof","components":[{"name":"seal","type":"tuple","internalType":"struct Seal","components":[{"name":"verifierSelector","type":"bytes4","internalType":"bytes4"},{"name":"seal","type":"bytes32[8]","internalType":"bytes32[8]"},{"name":"mode","type":"uint8","internalType":"enum ProofMode"}]},{"name":"callGuestId","type":"bytes32","internalType":"bytes32"},{"name":"length","type":"uint256","internalType":"uint256"},{"name":"callAssumptions","type":"tuple","internalType":"struct CallAssumptions","components":[{"name":"proverContractAddress","type":"address","internalType":"address"},{"name":"functionSelector","type":"bytes4","internalType":"bytes4"},{"name":"settleBlockNumber","type":"uint256","internalType":"uint256"},{"name":"settleBlockHash","type":"bytes32","internalType":"bytes32"}]}]},{"name":"journalHash","type":"bytes32","internalType":"bytes32"},{"name":"expectedProver","type":"address","internalType":"address"},{"name":"expectedSelector","type":"bytes4","internalType":"bytes4"}],"outputs":[],"stateMutability":"view"},{"type":"error","name":"InvalidChainId","inputs":[]}],"bytecode":{"object":"0x60e060405234801561001057600080fd5b507fb15b078d354dd79180221c1782ce5dc76100427b7332c24b4b2167b7ab78d47c60c05261003d6100b4565b1561005b57604051633d23e4d160e11b815260040160405180910390fd5b60405163deafbeef60e01b9061007090610105565b6001600160e01b03199091168152602001604051809103906000f08015801561009d573d6000803e3d6000fd5b506001600160a01b031660a0526001608052610112565b600046600114806100c5575046600a145b806100d1575046612105145b806100dd57504661a4b1145b806100e957504661a4ba145b806100f45750466089145b80610100575046610144145b905090565b6109e180610ab383390190565b60805160a05160c0516109526101616000396000818160b70152818160ea015281816101b801526104a30152600081816061015261017a015260008181610111015261022e01526109526000f3fe608060405234801561001057600080fd5b50600436106100575760003560e01c806308c84e701461005c5780634bc8e31c146100a05780634e8f9396146100b55780638d98dea9146100e55780639a44ea841461010c575b600080fd5b6100837f000000000000000000000000000000000000000000000000000000000000000081565b6040516001600160a01b0390911681526020015b60405180910390f35b6100b36100ae3660046105cd565b610140565b005b7f00000000000000000000000000000000000000000000000000000000000000005b604051908152602001610097565b6100d77f000000000000000000000000000000000000000000000000000000000000000081565b6101337f000000000000000000000000000000000000000000000000000000000000000081565b604051610097919061063d565b61015761015236869003860186610787565b61022c565b61017061016936869003860186610787565b83836102bf565b6001600160a01b037f00000000000000000000000000000000000000000000000000000000000000001663ab750e756101b66101b13688900388018861082f565b610512565b7f0000000000000000000000000000000000000000000000000000000000000000866040518463ffffffff1660e01b81526004016101f693929190610853565b60006040518083038186803b15801561020e57600080fd5b505afa158015610222573d6000803e3d6000fd5b5050505050505050565b7f0000000000000000000000000000000000000000000000000000000000000000600181111561025e5761025e610627565b815160400151600181111561027557610275610627565b146102bc5760405162461bcd60e51b8152602060048201526012602482015271496e76616c69642070726f6f66206d6f646560701b60448201526064015b60405180910390fd5b50565b816001600160a01b03168360600151600001516001600160a01b0316146103195760405162461bcd60e51b815260206004820152600e60248201526d24b73b30b634b210383937bb32b960911b60448201526064016102b3565b806001600160e01b0319168360600151602001516001600160e01b031916146103775760405162461bcd60e51b815260206004820152601060248201526f24b73b30b634b21039b2b632b1ba37b960811b60448201526064016102b3565b43836060015160400151106103de5760405162461bcd60e51b815260206004820152602760248201527f496e76616c696420626c6f636b206e756d6265723a20626c6f636b2066726f6d6044820152662066757475726560c81b60648201526084016102b3565b436101008460600151604001516103f591906108af565b101561044f5760405162461bcd60e51b815260206004820152602360248201527f496e76616c696420626c6f636b206e756d6265723a20626c6f636b20746f6f206044820152621bdb1960ea1b60648201526084016102b3565b60608084015160408101519101519040146104a15760405162461bcd60e51b8152602060048201526012602482015271092dcecc2d8d2c840c4d8dec6d640d0c2e6d60731b60448201526064016102b3565b7f000000000000000000000000000000000000000000000000000000000000000083602001511461050d5760405162461bcd60e51b815260206004820152601660248201527510d85b1b11dd595cdd1259081b5a5cdb585d18da195960521b60448201526064016102b3565b505050565b606060018260400151600181111561052c5761052c610627565b0361056d5750602081810151519151604080516001600160e01b03199092169282019290925260248082019390935281518082039093018352604401905290565b81516020808401516040516105839392016108d6565b6040516020818303038152906040529050919050565b919050565b80356001600160a01b038116811461059957600080fd5b80356001600160e01b03198116811461059957600080fd5b6000806000808486036102608112156105e557600080fd5b6102008112156105f457600080fd5b50849350610200840135925061060d610220850161059e565b915061061c61024086016105b5565b905092959194509250565b634e487b7160e01b600052602160045260246000fd5b602081016002831061065f57634e487b7160e01b600052602160045260246000fd5b91905290565b634e487b7160e01b600052604160045260246000fd5b6040516060810167ffffffffffffffff8111828210171561069e5761069e610665565b60405290565b604051610100810167ffffffffffffffff8111828210171561069e5761069e610665565b6040516080810167ffffffffffffffff8111828210171561069e5761069e610665565b80356002811061059957600080fd5b6000610140828403121561070d57600080fd5b61071561067b565b9050610720826105b5565b815282603f83011261073157600080fd5b6107396106a4565b8061012084018581111561074c57600080fd5b602085015b81811015610769578035845260209384019301610751565b50816020850152610779816106eb565b604085015250505092915050565b60008183036102008112801561079c57600080fd5b5060006107a76106c8565b6107b186866106fa565b815261014085013560208201526101608501356040820152608061017f19840112156107db578182fd5b6107e36106c8565b92506107f2610180860161059e565b83526108016101a086016105b5565b60208401526101c085013560408401526101e090940135606080840191909152840191909152509092915050565b6000610140828403121561084257600080fd5b61084c83836106fa565b9392505050565b606081526000845180606084015260005b818110156108815760208188018101516080868401015201610864565b506000608082850101526080601f19601f830116840101915050836020830152826040830152949350505050565b808201808211156108d057634e487b7160e01b600052601160045260246000fd5b92915050565b6001600160e01b03198316815260006004820183825b600881101561090b5781518352602092830192909101906001016108ec565b50505061010482019050939250505056fea2646970667358221220a8c0d02698d9abc376c5f89a675f337ab3f5f30f251bb86a41c4d0f1ee0a3a7764736f6c634300081a003360a0604052348015600f57600080fd5b506040516109e13803806109e1833981016040819052602c91603d565b6001600160e01b031916608052606c565b600060208284031215604e57600080fd5b81516001600160e01b031981168114606557600080fd5b9392505050565b60805161094761009a6000396000818160610152818160ee015281816101fa015261025f01526109476000f3fe608060405234801561001057600080fd5b50600436106100575760003560e01c8063053c238d1461005c5780631599ead5146100a15780633a115bb1146100b657806366cf0e4b14610149578063ab750e751461015c575b600080fd5b6100837f000000000000000000000000000000000000000000000000000000000000000081565b6040516001600160e01b031990911681526020015b60405180910390f35b6100b46100af3660046106a5565b61016f565b005b61013c6100c43660046106e0565b604080518082019091526060815260006020820152604080518082019091526001600160e01b03197f000000000000000000000000000000000000000000000000000000000000000016606082015260648101839052806084810160408051601f198184030181529190528152602001929092525090565b604051610098919061071d565b61013c610157366004610763565b610189565b6100b461016a366004610785565b6101ba565b61018661017c8280610806565b83602001356101d7565b50565b6040805180820190915260608152600060208201526101b36100c46101ae85856102fc565b610463565b9392505050565b6101d184846101cc6101ae86866102fc565b6101d7565b50505050565b6101e5600460008486610854565b6101ee9161087e565b6001600160e01b0319167f00000000000000000000000000000000000000000000000000000000000000006001600160e01b0319161461029257610236600460008486610854565b61023f9161087e565b604051632e2ce35360e21b81526001600160e01b031991821660048201527f0000000000000000000000000000000000000000000000000000000000000000909116602482015260440160405180910390fd5b60408051602081018390520160408051601f1981840301815291905280516020909101206102c38360048187610854565b6040516102d19291906108b6565b6040518091039020146102f75760405163439cc0cd60e01b815260040160405180910390fd5b505050565b610304610660565b6040518060a0016040528084815260200160028060405161033c907072697363302e53797374656d537461746560781b815260110190565b602060405180830381855afa158015610359573d6000803e3d6000fd5b5050506040513d601f19601f8201168201806040525081019061037c91906108c6565b60408051602081019290925260009082018190526060820152600160f81b606482015260660160408051601f19818403018152908290526103bc916108df565b602060405180830381855afa1580156103d9573d6000803e3d6000fd5b5050506040513d601f19601f820116820180604052508101906103fc91906108c6565b815260200160405180604001604052806000600281111561041f5761041f6108fb565b8152602001600060ff1681525081526020016000801b815260200161045a60405180604001604052808681526020016000801b8152506105c8565b90529392505050565b600060028060405161048d907172697363302e52656365697074436c61696d60701b815260120190565b602060405180830381855afa1580156104aa573d6000803e3d6000fd5b5050506040513d601f19601f820116820180604052508101906104cd91906108c6565b606084015184516020860151608087015160408801515160189060028111156104f8576104f86108fb565b60408a810151602090810151825191820199909952908101969096526060860194909452608085019290925260a084015263ffffffff909116901b60e01b6001600160e01b03191660c082015260f89190911b6001600160f81b03191660c4820152600160fa1b60c882015260ca015b60408051601f1981840301815290829052610582916108df565b602060405180830381855afa15801561059f573d6000803e3d6000fd5b5050506040513d601f19601f820116820180604052508101906105c291906108c6565b92915050565b60006002806040516105ec906b1c9a5cd8cc0b93dd5d1c1d5d60a21b8152600c0190565b602060405180830381855afa158015610609573d6000803e3d6000fd5b5050506040513d601f19601f8201168201806040525081019061062c91906108c6565b83516020808601516040805192830194909452928101919091526060810191909152600160f91b6080820152608201610568565b6040805160a08101825260008082526020820152908101610691604080518082019091526000808252602082015290565b815260006020820181905260409091015290565b6000602082840312156106b757600080fd5b813567ffffffffffffffff8111156106ce57600080fd5b8201604081850312156101b357600080fd5b6000602082840312156106f257600080fd5b5035919050565b60005b838110156107145781810151838201526020016106fc565b50506000910152565b60208152600082516040602084015280518060608501526107458160808601602085016106f9565b60209490940151604084015250506080601f909201601f1916010190565b6000806040838503121561077657600080fd5b50508035926020909101359150565b6000806000806060858703121561079b57600080fd5b843567ffffffffffffffff8111156107b257600080fd5b8501601f810187136107c357600080fd5b803567ffffffffffffffff8111156107da57600080fd5b8760208284010111156107ec57600080fd5b602091820198909750908601359560400135945092505050565b6000808335601e1984360301811261081d57600080fd5b83018035915067ffffffffffffffff82111561083857600080fd5b60200191503681900382131561084d57600080fd5b9250929050565b6000808585111561086457600080fd5b8386111561087157600080fd5b5050820193919092039150565b80356001600160e01b031981169060048410156108af576001600160e01b0319600485900360031b81901b82161691505b5092915050565b8183823760009101908152919050565b6000602082840312156108d857600080fd5b5051919050565b600082516108f18184602087016106f9565b9190910192915050565b634e487b7160e01b600052602160045260246000fdfea2646970667358221220a5d6e4bb375e37ba581905be4a13106e2b2b1ccb976f0c127b0cc77b905226dc64736f6c634300081a0033","linkReferences":{}},"methodIdentifiers":{"CALL_GUEST_ID()":"8d98dea9","PROOF_MODE()":"9a44ea84","VERIFIER()":"08c84e70","call_guest_id()":"4e8f9396","verify(((bytes4,bytes32[8],uint8),bytes32,uint256,(address,bytes4,uint256,bytes32)),bytes32,address,bytes4)":"4bc8e31c"},"id":53}