{"abi":[{"type":"function","name":"main","inputs":[{"name":"webProof","type":"tuple","internalType":"struct WebProof","components":[{"name":"webProofJson","type":"string","internalType":"string"}]},{"name":"account","type":"address","internalType":"address"}],"outputs":[{"name":"","type":"tuple","internalType":"struct Proof","components":[{"name":"seal","type":"tuple","internalType":"struct Seal","components":[{"name":"verifierSelector","type":"bytes4","internalType":"bytes4"},{"name":"seal","type":"bytes32[8]","internalType":"bytes32[8]"},{"name":"mode","type":"uint8","internalType":"enum ProofMode"}]},{"name":"callGuestId","type":"bytes32","internalType":"bytes32"},{"name":"length","type":"uint256","internalType":"uint256"},{"name":"callAssumptions","type":"tuple","internalType":"struct CallAssumptions","components":[{"name":"proverContractAddress","type":"address","internalType":"address"},{"name":"functionSelector","type":"bytes4","internalType":"bytes4"},{"name":"settleBlockNumber","type":"uint256","internalType":"uint256"},{"name":"settleBlockHash","type":"bytes32","internalType":"bytes32"}]}]},{"name":"","type":"string","internalType":"string"},{"name":"","type":"address","internalType":"address"}],"stateMutability":"view"},{"type":"function","name":"proof","inputs":[],"outputs":[{"name":"","type":"tuple","internalType":"struct Proof","components":[{"name":"seal","type":"tuple","internalType":"struct Seal","components":[{"name":"verifierSelector","type":"bytes4","internalType":"bytes4"},{"name":"seal","type":"bytes32[8]","internalType":"bytes32[8]"},{"name":"mode","type":"uint8","internalType":"enum ProofMode"}]},{"name":"callGuestId","type":"bytes32","internalType":"bytes32"},{"name":"length","type":"uint256","internalType":"uint256"},{"name":"callAssumptions","type":"tuple","internalType":"struct CallAssumptions","components":[{"name":"proverContractAddress","type":"address","internalType":"address"},{"name":"functionSelector","type":"bytes4","internalType":"bytes4"},{"name":"settleBlockNumber","type":"uint256","internalType":"uint256"},{"name":"settleBlockHash","type":"bytes32","internalType":"bytes32"}]}]}],"stateMutability":"pure"},{"type":"function","name":"setBlock","inputs":[{"name":"blockNo","type":"uint256","internalType":"uint256"}],"outputs":[],"stateMutability":"nonpayable"},{"type":"function","name":"setChain","inputs":[{"name":"chainId","type":"uint256","internalType":"uint256"},{"name":"blockNo","type":"uint256","internalType":"uint256"}],"outputs":[],"stateMutability":"nonpayable"},{"type":"error","name":"FailedInnerCall","inputs":[]}],"bytecode":{"object":"0x6080604052348015600f57600080fd5b50610abb8061001f6000396000f3fe608060405234801561001057600080fd5b506004361061004c5760003560e01c806387cea3ae14610051578063c822d5ef14610066578063faf924cf14610091578063ffbc5638146100a6575b600080fd5b61006461005f366004610569565b6100b9565b005b610079610074366004610582565b610133565b604051610088939291906106f2565b60405180910390f35b6100996101b2565b604051610088919061072e565b6100646100b436600461073d565b6101c7565b6040516343e751d760e11b8152600481018290527376dc9aa45aa006a0f63942d8f9f21bd4537972a3906387cea3ae906024016020604051808303816000875af115801561010b573d6000803e3d6000fd5b505050506040513d601f19601f8201168201806040525081019061012f919061075f565b5050565b61013b6104d7565b606060008061016b6040518060600160405280603c8152602001610a4a603c913961016588610819565b9061024c565b9050600061019d6040518060400160405280600381526020016206e69760ec1b8152508361035390919063ffffffff16565b90506101a76101b2565b979096509350505050565b6101ba6104d7565b6101c2610456565b905090565b60405160016208753960e31b0319815260048101839052602481018290527376dc9aa45aa006a0f63942d8f9f21bd4537972a39063ffbc5638906044016020604051808303816000875af1158015610223573d6000803e3d6000fd5b505050506040513d601f19601f82011682018060405250810190610247919061075f565b505050565b60408051808201909152606080825260208201528251604051600091829161010091610277916108c0565b600060405180830381855afa9150503d80600081146102b2576040519150601f19603f3d011682016040523d82523d6000602084013e6102b7565b606091505b50915091506102c6828261046b565b506000818060200190518101906102dd9190610929565b80519091506102ed908690610487565b61032e5760405162461bcd60e51b815260206004820152600d60248201526c125b98dbdc9c9958dd08155493609a1b60448201526064015b60405180910390fd5b6040805180820182529082015181526060909101516020820152925050505b92915050565b8151516060906103955760405162461bcd60e51b815260206004820152600d60248201526c426f647920697320656d70747960981b6044820152606401610325565b60408051808201825284518152602080820185905291516000926103ba9291016109c5565b60405160208183030381529060405290506000806101026001600160a01b0316836040516103e891906108c0565b600060405180830381855afa9150503d8060008114610423576040519150601f19603f3d011682016040523d82523d6000602084013e610428565b606091505b5091509150610437828261046b565b508080602001905181019061044c9190610a14565b9695505050505050565b61045e6104d7565b6104666104d7565b919050565b6060826104805761047b826104ae565b61034d565b508061034d565b6000815183511480156104a7575081805190602001208380519060200120145b9392505050565b8051156104be5780518082602001fd5b604051630a12f52160e11b815260040160405180910390fd5b60405180608001604052806104ea610523565b81526000602080830182905260408084018390528051608081018252838152918201839052810182905260608181019290925291015290565b6040805160608101909152600081526020810161053e61054a565b81526020016000905290565b6040518061010001604052806008906020820280368337509192915050565b60006020828403121561057b57600080fd5b5035919050565b6000806040838503121561059557600080fd5b823567ffffffffffffffff8111156105ac57600080fd5b8301602081860312156105be57600080fd5b915060208301356001600160a01b03811681146105da57600080fd5b809150509250929050565b805180516001600160e01b031916835260208082015190840160005b6008811015610620578251825260209283019290910190600101610601565b505050604001516002811061064557634e487b7160e01b600052602160045260246000fd5b61012083015260208181015161014084015260408083015161016085015260609283015180516001600160a01b0316610180860152918201516001600160e01b0319166101a08501528101516101c084015201516101e090910152565b60005b838110156106bd5781810151838201526020016106a5565b50506000910152565b600081518084526106de8160208601602086016106a2565b601f01601f19169290920160200192915050565b6106fc81856105e5565b61024061020082015260006107156102408301856106c6565b905060018060a01b038316610220830152949350505050565b610200810161034d82846105e5565b6000806040838503121561075057600080fd5b50508035926020909101359150565b60006020828403121561077157600080fd5b815180151581146104a757600080fd5b634e487b7160e01b600052604160045260246000fd5b6040516080810167ffffffffffffffff811182821017156107ba576107ba610781565b60405290565b604051601f8201601f1916810167ffffffffffffffff811182821017156107e9576107e9610781565b604052919050565b600067ffffffffffffffff82111561080b5761080b610781565b50601f01601f191660200190565b60006020823603121561082b57600080fd5b6040516020810167ffffffffffffffff8111828210171561084e5761084e610781565b604052823567ffffffffffffffff81111561086857600080fd5b830136601f82011261087957600080fd5b803561088c610887826107f1565b6107c0565b8181523660208385010111156108a157600080fd5b8160208401602083013760009181016020019190915282525092915050565b600082516108d28184602087016106a2565b9190910192915050565b600082601f8301126108ed57600080fd5b81516108fb610887826107f1565b81815284602083860101111561091057600080fd5b6109218260208301602087016106a2565b949350505050565b60006020828403121561093b57600080fd5b815167ffffffffffffffff81111561095257600080fd5b8201601f8101841361096357600080fd5b61096b610797565b80608083018681111561097d57600080fd5b835b818110156109b957805167ffffffffffffffff81111561099e57600080fd5b6109aa898288016108dc565b8552506020938401930161097f565b50909695505050505050565b60208082526000906060830190830184835b6002811015610a0957601f198685030183526109f48483516106c6565b935060209283019291909101906001016109d7565b509195945050505050565b600060208284031215610a2657600080fd5b815167ffffffffffffffff811115610a3d57600080fd5b610921848285016108dc56fe68747470733a2f2f6b6f6e666967757261746f722e62697a6e65732e676f762e706c2f6170692f76322f63656964672f6d792d627573696e6573732fa264697066735822122032b1588337381ab1a6d9a34b02a4eef90b9283098178f92c8e650f298baea5cb64736f6c634300081c0033","linkReferences":{}},"methodIdentifiers":{"main((string),address)":"c822d5ef","proof()":"faf924cf","setBlock(uint256)":"87cea3ae","setChain(uint256,uint256)":"ffbc5638"},"id":35}