{"abi":[{"type":"function","name":"main","inputs":[{"name":"webProof","type":"tuple","internalType":"struct WebProof","components":[{"name":"webProofJson","type":"string","internalType":"string"}]},{"name":"account","type":"address","internalType":"address"}],"outputs":[{"name":"","type":"tuple","internalType":"struct Proof","components":[{"name":"seal","type":"tuple","internalType":"struct Seal","components":[{"name":"verifierSelector","type":"bytes4","internalType":"bytes4"},{"name":"seal","type":"bytes32[8]","internalType":"bytes32[8]"},{"name":"mode","type":"uint8","internalType":"enum ProofMode"}]},{"name":"callGuestId","type":"bytes32","internalType":"bytes32"},{"name":"length","type":"uint256","internalType":"uint256"},{"name":"callAssumptions","type":"tuple","internalType":"struct CallAssumptions","components":[{"name":"proverContractAddress","type":"address","internalType":"address"},{"name":"functionSelector","type":"bytes4","internalType":"bytes4"},{"name":"settleBlockNumber","type":"uint256","internalType":"uint256"},{"name":"settleBlockHash","type":"bytes32","internalType":"bytes32"}]}]},{"name":"","type":"string","internalType":"string"},{"name":"","type":"address","internalType":"address"}],"stateMutability":"view"},{"type":"function","name":"proof","inputs":[],"outputs":[{"name":"","type":"tuple","internalType":"struct Proof","components":[{"name":"seal","type":"tuple","internalType":"struct Seal","components":[{"name":"verifierSelector","type":"bytes4","internalType":"bytes4"},{"name":"seal","type":"bytes32[8]","internalType":"bytes32[8]"},{"name":"mode","type":"uint8","internalType":"enum ProofMode"}]},{"name":"callGuestId","type":"bytes32","internalType":"bytes32"},{"name":"length","type":"uint256","internalType":"uint256"},{"name":"callAssumptions","type":"tuple","internalType":"struct CallAssumptions","components":[{"name":"proverContractAddress","type":"address","internalType":"address"},{"name":"functionSelector","type":"bytes4","internalType":"bytes4"},{"name":"settleBlockNumber","type":"uint256","internalType":"uint256"},{"name":"settleBlockHash","type":"bytes32","internalType":"bytes32"}]}]}],"stateMutability":"pure"},{"type":"function","name":"setBlock","inputs":[{"name":"blockNo","type":"uint256","internalType":"uint256"}],"outputs":[],"stateMutability":"nonpayable"},{"type":"function","name":"setChain","inputs":[{"name":"chainId","type":"uint256","internalType":"uint256"},{"name":"blockNo","type":"uint256","internalType":"uint256"}],"outputs":[],"stateMutability":"nonpayable"},{"type":"error","name":"FailedInnerCall","inputs":[]}],"bytecode":{"object":"0x6080604052348015600f57600080fd5b50610bff8061001f6000396000f3fe608060405234801561001057600080fd5b506004361061004c5760003560e01c806387cea3ae14610051578063c822d5ef14610066578063faf924cf14610091578063ffbc5638146100a6575b600080fd5b61006461005f36600461060c565b6100b9565b005b610079610074366004610625565b610133565b60405161008893929190610795565b60405180910390f35b6100996101ba565b60405161008891906107d1565b6100646100b43660046107e0565b6101cf565b6040516343e751d760e11b8152600481018290527376dc9aa45aa006a0f63942d8f9f21bd4537972a3906387cea3ae906024016020604051808303816000875af115801561010b573d6000803e3d6000fd5b505050506040513d601f19601f8201168201806040525081019061012f9190610802565b5050565b61013b61057a565b606060008061016b6040518060600160405280602b8152602001610b9f602b9139610165886108bc565b90610254565b905060006101a56040518060400160405280600b81526020016a73637265656e5f6e616d6560a81b815250836102f790919063ffffffff16565b90506101af6101ba565b979096509350505050565b6101c261057a565b6101ca6103fa565b905090565b60405160016208753960e31b0319815260048101839052602481018290527376dc9aa45aa006a0f63942d8f9f21bd4537972a39063ffbc5638906044016020604051808303816000875af115801561022b573d6000803e3d6000fd5b505050506040513d601f19601f8201168201806040525081019061024f9190610802565b505050565b60408051808201909152606080825260208201526000610274848461040f565b905061029d81602001516040518060e0016040528060b28152602001610aed60b291399061050f565b6102ee5760405162461bcd60e51b815260206004820152601b60248201527f496e636f7272656374206e6f74617279207075626c6963206b6579000000000060448201526064015b60405180910390fd5b90505b92915050565b8151516060906103395760405162461bcd60e51b815260206004820152600d60248201526c426f647920697320656d70747960981b60448201526064016102e5565b604080518082018252845181526020808201859052915160009261035e929101610963565b60405160208183030381529060405290506000806101026001600160a01b03168360405161038c91906109b2565b600060405180830381855afa9150503d80600081146103c7576040519150601f19603f3d011682016040523d82523d6000602084013e6103cc565b606091505b50915091506103db8282610535565b50808060200190518101906103f09190610a1b565b9695505050505050565b61040261057a565b61040a61057a565b919050565b6040805180820190915260608082526020820152825160405160009182916101009161043a916109b2565b600060405180830381855afa9150503d8060008114610475576040519150601f19603f3d011682016040523d82523d6000602084013e61047a565b606091505b50915091506104898282610535565b506000818060200190518101906104a09190610a50565b80519091506104b090869061050f565b6104ec5760405162461bcd60e51b815260206004820152600d60248201526c125b98dbdc9c9958dd08155493609a1b60448201526064016102e5565b604080518082018252908201518152606090910151602082015295945050505050565b6000815183511480156102ee575081805190602001208380519060200120149392505050565b60608261054a5761054582610551565b6102f1565b50806102f1565b8051156105615780518082602001fd5b604051630a12f52160e11b815260040160405180910390fd5b604051806080016040528061058d6105c6565b81526000602080830182905260408084018390528051608081018252838152918201839052810182905260608181019290925291015290565b604080516060810190915260008152602081016105e16105ed565b81526020016000905290565b6040518061010001604052806008906020820280368337509192915050565b60006020828403121561061e57600080fd5b5035919050565b6000806040838503121561063857600080fd5b823567ffffffffffffffff81111561064f57600080fd5b83016020818603121561066157600080fd5b915060208301356001600160a01b038116811461067d57600080fd5b809150509250929050565b805180516001600160e01b031916835260208082015190840160005b60088110156106c35782518252602092830192909101906001016106a4565b50505060400151600281106106e857634e487b7160e01b600052602160045260246000fd5b61012083015260208181015161014084015260408083015161016085015260609283015180516001600160a01b0316610180860152918201516001600160e01b0319166101a08501528101516101c084015201516101e090910152565b60005b83811015610760578181015183820152602001610748565b50506000910152565b60008151808452610781816020860160208601610745565b601f01601f19169290920160200192915050565b61079f8185610688565b61024061020082015260006107b8610240830185610769565b905060018060a01b038316610220830152949350505050565b61020081016102f18284610688565b600080604083850312156107f357600080fd5b50508035926020909101359150565b60006020828403121561081457600080fd5b815180151581146102ee57600080fd5b634e487b7160e01b600052604160045260246000fd5b6040516080810167ffffffffffffffff8111828210171561085d5761085d610824565b60405290565b604051601f8201601f1916810167ffffffffffffffff8111828210171561088c5761088c610824565b604052919050565b600067ffffffffffffffff8211156108ae576108ae610824565b50601f01601f191660200190565b6000602082360312156108ce57600080fd5b6040516020810167ffffffffffffffff811182821017156108f1576108f1610824565b604052823567ffffffffffffffff81111561090b57600080fd5b830136601f82011261091c57600080fd5b803561092f61092a82610894565b610863565b81815236602083850101111561094457600080fd5b8160208401602083013760009181016020019190915282525092915050565b60208082526000906060830190830184835b60028110156109a757601f19868503018352610992848351610769565b93506020928301929190910190600101610975565b509195945050505050565b600082516109c4818460208701610745565b9190910192915050565b600082601f8301126109df57600080fd5b81516109ed61092a82610894565b818152846020838601011115610a0257600080fd5b610a13826020830160208701610745565b949350505050565b600060208284031215610a2d57600080fd5b815167ffffffffffffffff811115610a4457600080fd5b610a13848285016109ce565b600060208284031215610a6257600080fd5b815167ffffffffffffffff811115610a7957600080fd5b8201601f81018413610a8a57600080fd5b610a9261083a565b806080830186811115610aa457600080fd5b835b81811015610ae057805167ffffffffffffffff811115610ac557600080fd5b610ad1898288016109ce565b85525060209384019301610aa6565b5090969550505050505056fe2d2d2d2d2d424547494e205055424c4943204b45592d2d2d2d2d0a4d466b77457759484b6f5a497a6a3043415159494b6f5a497a6a304441516344516741457870582f3452347a3430674936432f6a397a414d33397535384c4a750a3343783574585475716868752f7469726e426935476e694d6d73704f544573707334414e6e504c704d6d4d5366684a2b49464862633371564f413d3d0a2d2d2d2d2d454e44205055424c4943204b45592d2d2d2d2d0a68747470733a2f2f6170692e782e636f6d2f312e312f6163636f756e742f73657474696e67732e6a736f6ea26469706673582212205c2a6ead837624bfd5af8f220238a5de826ba4080a3c2cc4312756a85e7f606c64736f6c634300081a0033","linkReferences":{}},"methodIdentifiers":{"main((string),address)":"c822d5ef","proof()":"faf924cf","setBlock(uint256)":"87cea3ae","setChain(uint256,uint256)":"ffbc5638"},"id":61}