{"abi":[{"type":"function","name":"RISC0_CALL_GUEST_ID","inputs":[],"outputs":[{"name":"","type":"bytes32","internalType":"bytes32"}],"stateMutability":"view"}],"bytecode":{"object":"0x60a66037600b82828239805160001a607314602a57634e487b7160e01b600052600060045260246000fd5b30600052607381538281f3fe730000000000000000000000000000000000000000301460806040526004361060335760003560e01c8063d7b00be9146038575b600080fd5b605e7fb15b078d354dd79180221c1782ce5dc76100427b7332c24b4b2167b7ab78d47c81565b60405190815260200160405180910390f3fea2646970667358221220ebdf28ffb2d40ef72ddbc8bb2cef5fe0c6b9e885d43c4e917c7e3e3a1be1ea3b64736f6c634300081c0033","linkReferences":{}},"methodIdentifiers":{"RISC0_CALL_GUEST_ID()":"d7b00be9"},"id":45}