{"abi":[{"type":"function","name":"FAKE_SEAL_LENGTH","inputs":[],"outputs":[{"name":"","type":"uint256","internalType":"uint256"}],"stateMutability":"view"},{"type":"function","name":"GROTH16_SEAL_LENGTH","inputs":[],"outputs":[{"name":"","type":"uint256","internalType":"uint256"}],"stateMutability":"view"},{"type":"function","name":"PROOF_MODE_ENCODING_LENGTH","inputs":[],"outputs":[{"name":"","type":"uint256","internalType":"uint256"}],"stateMutability":"view"},{"type":"function","name":"SEAL_BYTES_ENCODING_LENGTH","inputs":[],"outputs":[{"name":"","type":"uint256","internalType":"uint256"}],"stateMutability":"view"},{"type":"function","name":"SEAL_ENCODING_LENGTH","inputs":[],"outputs":[{"name":"","type":"uint256","internalType":"uint256"}],"stateMutability":"view"},{"type":"function","name":"VERIFIER_SELECTOR_ENCODING_LENGTH","inputs":[],"outputs":[{"name":"","type":"uint256","internalType":"uint256"}],"stateMutability":"view"},{"type":"function","name":"VERIFIER_SELECTOR_LENGTH","inputs":[],"outputs":[{"name":"","type":"uint256","internalType":"uint256"}],"stateMutability":"view"}],"bytecode":{"object":"0x61015c610039600b82828239805160001a607314602c57634e487b7160e01b600052600060045260246000fd5b30600052607381538281f3fe73000000000000000000000000000000000000000030146080604052600436106100875760003560e01c8063be7acbcf11610065578063be7acbcf146100b6578063cb7138ed146100ae578063db3e68bf146100be578063e336381d146100c657600080fd5b806343e656f01461008c5780636b1a676e146100a6578063702c2615146100ae575b600080fd5b6100946100cf565b60405190815260200160405180910390f35b6100946100df565b610094602081565b6100946100f7565b610094600481565b61009461010081565b6100dc60046101006100ff565b81565b60206100ed610100826100ff565b6100dc91906100ff565b6100dc600460205b8082018082111561012057634e487b7160e01b600052601160045260246000fd5b9291505056fea2646970667358221220d48062bc52f86c46d103880bbb476606a36749f04ee8abe26fdff73d88b63b4e64736f6c634300081a0033","linkReferences":{}},"methodIdentifiers":{"FAKE_SEAL_LENGTH()":"be7acbcf","GROTH16_SEAL_LENGTH()":"43e656f0","PROOF_MODE_ENCODING_LENGTH()":"cb7138ed","SEAL_BYTES_ENCODING_LENGTH()":"e336381d","SEAL_ENCODING_LENGTH()":"6b1a676e","VERIFIER_SELECTOR_ENCODING_LENGTH()":"702c2615","VERIFIER_SELECTOR_LENGTH()":"db3e68bf"},"id":49}