{
  "address": "0x3Ab4AaE33668dEBE76f3ACF6Dc99bcF17b57e700",
  "abi": [
    {
      "inputs": [
        {
          "internalType": "contract IEntryPoint",
          "name": "_entryPoint",
          "type": "address"
        }
      ],
      "stateMutability": "nonpayable",
      "type": "constructor"
    },
    {
      "inputs": [],
      "name": "accountImplementation",
      "outputs": [
        {
          "internalType": "contract SimpleAccount",
          "name": "",
          "type": "address"
        }
      ],
      "stateMutability": "view",
      "type": "function"
    },
    {
      "inputs": [
        {
          "components": [
            {
              "internalType": "bytes32",
              "name": "govIdHash",
              "type": "bytes32"
            }
          ],
          "internalType": "struct SimpleAccount.InitializeParams",
          "name": "params",
          "type": "tuple"
        }
      ],
      "name": "createAccount",
      "outputs": [
        {
          "internalType": "contract SimpleAccount",
          "name": "ret",
          "type": "address"
        }
      ],
      "stateMutability": "nonpayable",
      "type": "function"
    },
    {
      "inputs": [
        {
          "components": [
            {
              "internalType": "bytes32",
              "name": "govIdHash",
              "type": "bytes32"
            }
          ],
          "internalType": "struct SimpleAccount.InitializeParams",
          "name": "params",
          "type": "tuple"
        }
      ],
      "name": "getAccountAddress",
      "outputs": [
        {
          "internalType": "address",
          "name": "",
          "type": "address"
        }
      ],
      "stateMutability": "view",
      "type": "function"
    }
  ],
  "transactionHash": "0x4d790669e4fb86800f17ec57b2ec96d13b3a743a792dad0f6dca2406bd19a751",
  "args": [
    "0x0000000071727De22E5E9d8BAf0edAc6f37da032"
  ],
  "numDeployments": 3,
  "solcInputHash": "3437d8fd8aa1d84dafb35fd0f0ddaabe",
  "bytecode": "0x60a060405234801561001057600080fd5b50604051618ae2380380618ae283398101604081905261002f91610088565b8060405161003c9061007b565b6001600160a01b039091168152602001604051809103906000f080158015610068573d6000803e3d6000fd5b506001600160a01b0316608052506100b8565b61817f8061096383390190565b60006020828403121561009a57600080fd5b81516001600160a01b03811681146100b157600080fd5b9392505050565b6080516108836100e060003960008181604b01528181610111015261022701526108836000f3fe608060405234801561001057600080fd5b50600436106100415760003560e01c806311464fbe146100465780635bb2adba146100965780638cfe66d5146100a9575b600080fd5b61006d7f000000000000000000000000000000000000000000000000000000000000000081565b60405173ffffffffffffffffffffffffffffffffffffffff909116815260200160405180910390f35b61006d6100a436600461035d565b6100bc565b61006d6100b736600461035d565b610216565b60006102106000801b604051806020016100d590610350565b7fffffffffffffffffffffffffffffffffffffffffffffffffffffffffffffffe082820381018352601f909101166040819052853560248201527f000000000000000000000000000000000000000000000000000000000000000090604401604080517fffffffffffffffffffffffffffffffffffffffffffffffffffffffffffffffe0818403018152918152602080830180517bffffffffffffffffffffffffffffffffffffffffffffffffffffffff167f482d4e320000000000000000000000000000000000000000000000000000000017905290516101b993929101610399565b604080517fffffffffffffffffffffffffffffffffffffffffffffffffffffffffffffffe0818403018152908290526101f59291602001610407565b604051602081830303815290604052805190602001206102fc565b92915050565b6040518135602482015260009081907f000000000000000000000000000000000000000000000000000000000000000090604401604080517fffffffffffffffffffffffffffffffffffffffffffffffffffffffffffffffe08184030181529181526020820180517bffffffffffffffffffffffffffffffffffffffffffffffffffffffff167f482d4e3200000000000000000000000000000000000000000000000000000000179052516102ca90610350565b6102d5929190610399565b8190604051809103906000f59050801580156102f5573d6000803e3d6000fd5b5092915050565b6000610309838330610310565b9392505050565b6000604051836040820152846020820152828152600b8101905060ff81536055902073ffffffffffffffffffffffffffffffffffffffff16949350505050565b6104178061043783390190565b60006020828403121561036f57600080fd5b50919050565b60005b83811015610390578181015183820152602001610378565b50506000910152565b73ffffffffffffffffffffffffffffffffffffffff8316815260406020820152600082518060408401526103d4816060850160208701610375565b601f017fffffffffffffffffffffffffffffffffffffffffffffffffffffffffffffffe016919091016060019392505050565b60008351610419818460208801610375565b83519083019061042d818360208801610375565b0194935050505056fe608060405260405161041738038061041783398101604081905261002291610268565b61002c8282610033565b5050610352565b61003c82610092565b6040516001600160a01b038316907fbc7cd75a20ee27fd9adebab32041f755214dbc6bffa90cc0225b39da2e5c2d3b90600090a280511561008657610081828261010e565b505050565b61008e610185565b5050565b806001600160a01b03163b6000036100cd57604051634c9c8ce360e01b81526001600160a01b03821660048201526024015b60405180910390fd5b7f360894a13ba1a3210667c828492db98dca3e2076cc3735a920a3ca505d382bbc80546001600160a01b0319166001600160a01b0392909216919091179055565b6060600080846001600160a01b03168460405161012b9190610336565b600060405180830381855af49150503d8060008114610166576040519150601f19603f3d011682016040523d82523d6000602084013e61016b565b606091505b50909250905061017c8583836101a6565b95945050505050565b34156101a45760405163b398979f60e01b815260040160405180910390fd5b565b6060826101bb576101b682610205565b6101fe565b81511580156101d257506001600160a01b0384163b155b156101fb57604051639996b31560e01b81526001600160a01b03851660048201526024016100c4565b50805b9392505050565b8051156102155780518082602001fd5b60405163d6bda27560e01b815260040160405180910390fd5b634e487b7160e01b600052604160045260246000fd5b60005b8381101561025f578181015183820152602001610247565b50506000910152565b6000806040838503121561027b57600080fd5b82516001600160a01b038116811461029257600080fd5b60208401519092506001600160401b03808211156102af57600080fd5b818501915085601f8301126102c357600080fd5b8151818111156102d5576102d561022e565b604051601f8201601f19908116603f011681019083821181831017156102fd576102fd61022e565b8160405282815288602084870101111561031657600080fd5b610327836020830160208801610244565b80955050505050509250929050565b60008251610348818460208701610244565b9190910192915050565b60b7806103606000396000f3fe6080604052600a600c565b005b60186014601a565b605e565b565b600060597f360894a13ba1a3210667c828492db98dca3e2076cc3735a920a3ca505d382bbc5473ffffffffffffffffffffffffffffffffffffffff1690565b905090565b3660008037600080366000845af43d6000803e808015607c573d6000f35b3d6000fdfea26469706673582212209add4d5da1e311d4889b18461bc36740920657fe9f544689eddcac30f366942e64736f6c63430008170033a264697066735822122003800d551d7d55a5bf07a2cc1d4da473f1129176b372f8187cedfc954a3614f364736f6c6343000817003360c0604052306080523480156200001557600080fd5b506040516200817f3803806200817f83398101604081905262000038916200025b565b6200004262000074565b600080546001600160a01b0319166001600160a01b03928316179055811660a0526200006d620000f2565b506200028d565b600062000080620001a6565b156200008c5750600090565b46617a691480620000a25750620000a2620001fd565b15620000d957604051620000b6906200024d565b604051809103906000f080158015620000d3573d6000803e3d6000fd5b50905090565b604051633d23e4d160e11b815260040160405180910390fd5b7ff0c57e16840df040f15088dc2f81fe391c3923bec73e23a9662efc9c229c6a00805468010000000000000000900460ff1615620001435760405163f92ee8a960e01b815260040160405180910390fd5b80546001600160401b0390811614620001a35780546001600160401b0319166001600160401b0390811782556040519081527fc7f505b2f371ae2175ee4913f4499e1f2633a7b5936321eed1cdaeb6115181d29060200160405180910390a15b50565b60004660011480620001b8575046600a145b80620001c5575046612105145b80620001d257504661a4b1145b80620001df57504661a4ba145b80620001eb5750466089145b80620001f8575046610144145b905090565b60004662aa36a714806200021357504662aa37dc145b806200022157504662014a34145b806200022f57504662013882145b806200023d57504662066eee145b80620001f857505061012c461490565b6155c98062002bb683390190565b6000602082840312156200026e57600080fd5b81516001600160a01b03811681146200028657600080fd5b9392505050565b60805160a0516128cb620002eb600039600081816103e90152818161088d0152818161093b01528181610baa01528181610c6801528181610d6d0152610f2d0152600081816110f60152818161111f015261133b01526128cb6000f3fe60806040526004361061016e5760003560e01c80635417890b116100cb578063bc197c811161007f578063db5be4fa11610059578063db5be4fa1461049f578063e5e22773146104b5578063f23a6e61146104d557600080fd5b8063bc197c811461042d578063c399ec8814610475578063d087d2881461048a57600080fd5b8063ad3cb1cc116100b0578063ad3cb1cc14610384578063b0d691fe146103da578063b61d27f61461040d57600080fd5b80635417890b146103375780638da5cb5b1461035757600080fd5b8063482d4e32116101225780634d44560d116101075780634d44560d146102ef5780634f1ef2861461030f57806352d1902d1461032257600080fd5b8063482d4e32146102c75780634a58db19146102e757600080fd5b806319822f7c1161015357806319822f7c146102255780632b7ac3f31461025357806334fcd5be146102a557600080fd5b806301ffc9a71461017a578063150b7a02146101af57600080fd5b3661017557005b600080fd5b34801561018657600080fd5b5061019a610195366004611d69565b61051b565b60405190151581526020015b60405180910390f35b3480156101bb57600080fd5b506101f46101ca366004611def565b7f150b7a020000000000000000000000000000000000000000000000000000000095945050505050565b6040517fffffffff0000000000000000000000000000000000000000000000000000000090911681526020016101a6565b34801561023157600080fd5b50610245610240366004611e62565b610600565b6040519081526020016101a6565b34801561025f57600080fd5b506000546102809073ffffffffffffffffffffffffffffffffffffffff1681565b60405173ffffffffffffffffffffffffffffffffffffffff90911681526020016101a6565b3480156102b157600080fd5b506102c56102c0366004611efb565b610626565b005b3480156102d357600080fd5b506102c56102e2366004611f3d565b61070f565b6102c561088b565b3480156102fb57600080fd5b506102c561030a366004611f55565b610931565b6102c561031d3660046120cb565b6109e0565b34801561032e57600080fd5b506102456109ff565b34801561034357600080fd5b506102c561035236600461211b565b610a2e565b34801561036357600080fd5b506002546102809073ffffffffffffffffffffffffffffffffffffffff1681565b34801561039057600080fd5b506103cd6040518060400160405280600581526020017f352e302e3000000000000000000000000000000000000000000000000000000081525081565b6040516101a691906121d3565b3480156103e657600080fd5b507f0000000000000000000000000000000000000000000000000000000000000000610280565b34801561041957600080fd5b506102c56104283660046121e6565b610b15565b34801561043957600080fd5b506101f4610448366004612242565b7fbc197c810000000000000000000000000000000000000000000000000000000098975050505050505050565b34801561048157600080fd5b50610245610b64565b34801561049657600080fd5b50610245610c1b565b3480156104ab57600080fd5b5061024560015481565b3480156104c157600080fd5b506103cd6104d0366004612301565b610c97565b3480156104e157600080fd5b506101f46104f036600461234f565b7ff23a6e61000000000000000000000000000000000000000000000000000000009695505050505050565b60007fffffffff0000000000000000000000000000000000000000000000000000000082167f150b7a020000000000000000000000000000000000000000000000000000000014806105ae57507fffffffff0000000000000000000000000000000000000000000000000000000082167f4e2312e000000000000000000000000000000000000000000000000000000000145b806105fa57507fffffffff0000000000000000000000000000000000000000000000000000000082167f01ffc9a700000000000000000000000000000000000000000000000000000000145b92915050565b600061060a610d55565b6106148484610df6565b905061061f82610eaa565b9392505050565b61062e610f15565b60005b8181101561070a5761070283838381811061064e5761064e6123cb565b905060200281019061066091906123fa565b61066e906020810190612438565b848484818110610680576106806123cb565b905060200281019061069291906123fa565b602001358585858181106106a8576106a86123cb565b90506020028101906106ba91906123fa565b6106c8906040810190612455565b8080601f016020809104026020016040519081016040528093929190818152602001838380828437600092019190915250610fd692505050565b600101610631565b505050565b7ff0c57e16840df040f15088dc2f81fe391c3923bec73e23a9662efc9c229c6a00805468010000000000000000810460ff16159067ffffffffffffffff1660008115801561075a5750825b905060008267ffffffffffffffff1660011480156107775750303b155b905081158015610785575080155b156107bc576040517ff92ee8a900000000000000000000000000000000000000000000000000000000815260040160405180910390fd5b84547fffffffffffffffffffffffffffffffffffffffffffffffff0000000000000000166001178555831561081d5784547fffffffffffffffffffffffffffffffffffffffffffffff00ffffffffffffffff16680100000000000000001785555b853560015583156108835784547fffffffffffffffffffffffffffffffffffffffffffffff00ffffffffffffffff168555604051600181527fc7f505b2f371ae2175ee4913f4499e1f2633a7b5936321eed1cdaeb6115181d29060200160405180910390a15b505050505050565b7f00000000000000000000000000000000000000000000000000000000000000006040517fb760faf900000000000000000000000000000000000000000000000000000000815230600482015273ffffffffffffffffffffffffffffffffffffffff919091169063b760faf99034906024016000604051808303818588803b15801561091657600080fd5b505af115801561092a573d6000803e3d6000fd5b5050505050565b610939611053565b7f00000000000000000000000000000000000000000000000000000000000000006040517f205c287800000000000000000000000000000000000000000000000000000000815273ffffffffffffffffffffffffffffffffffffffff848116600483015260248201849052919091169063205c287890604401600060405180830381600087803b1580156109cc57600080fd5b505af1158015610883573d6000803e3d6000fd5b6109e86110de565b6109f1826111e2565b6109fb82826111ea565b5050565b6000610a09611323565b507f360894a13ba1a3210667c828492db98dca3e2076cc3735a920a3ca505d382bbc90565b807fc822d5ef00000000000000000000000000000000000000000000000000000000610a5a8282611392565b6001548414610aca576040517f08c379a000000000000000000000000000000000000000000000000000000000815260206004820152601160248201527f696e76616c696420676f7649644861736800000000000000000000000000000060448201526064015b60405180910390fd5b5050600280547fffffffffffffffffffffffff00000000000000000000000000000000000000001673ffffffffffffffffffffffffffffffffffffffff929092169190911790555050565b610b1d610f15565b610b5e848484848080601f016020809104026020016040519081016040528093929190818152602001838380828437600092019190915250610fd692505050565b50505050565b6040517f70a0823100000000000000000000000000000000000000000000000000000000815230600482015260009073ffffffffffffffffffffffffffffffffffffffff7f000000000000000000000000000000000000000000000000000000000000000016906370a08231906024015b602060405180830381865afa158015610bf2573d6000803e3d6000fd5b505050506040513d601f19601f82011682018060405250810190610c1691906124ba565b905090565b6040517f35567e1a0000000000000000000000000000000000000000000000000000000081523060048201526000602482018190529073ffffffffffffffffffffffffffffffffffffffff7f000000000000000000000000000000000000000000000000000000000000000016906335567e1a90604401610bd5565b6060600082602080610ca98180612502565b610cb39190612502565b610cbd9190612502565b610cc79190612502565b90508085511015610d34576040517f08c379a000000000000000000000000000000000000000000000000000000000815260206004820152601660248201527f456e636f646564206461746120746f6f2073686f7274000000000000000000006044820152606401610ac1565b848101516000610d448683612515565b928701929092525093949350505050565b3373ffffffffffffffffffffffffffffffffffffffff7f00000000000000000000000000000000000000000000000000000000000000001614610df4576040517f08c379a000000000000000000000000000000000000000000000000000000000815260206004820152601c60248201527f6163636f756e743a206e6f742066726f6d20456e747279506f696e74000000006044820152606401610ac1565b565b7f19457468657265756d205369676e6564204d6573736167653a0a3332000000006000908152601c829052603c8120610e7181610e37610100870187612455565b8080601f01602080910402602001604051908101604052809392919081815260200183838082843760009201919091525061143392505050565b60025473ffffffffffffffffffffffffffffffffffffffff908116911614610e9d5760019150506105fa565b5060009392505050565b50565b8015610ea75760405160009033907fffffffffffffffffffffffffffffffffffffffffffffffffffffffffffffffff90849084818181858888f193505050503d806000811461092a576040519150601f19603f3d011682016040523d82523d6000602084013e61092a565b3373ffffffffffffffffffffffffffffffffffffffff7f0000000000000000000000000000000000000000000000000000000000000000161480610f70575060025473ffffffffffffffffffffffffffffffffffffffff1633145b610df4576040517f08c379a000000000000000000000000000000000000000000000000000000000815260206004820181905260248201527f6163636f756e743a206e6f74204f776e6572206f7220456e747279506f696e746044820152606401610ac1565b6000808473ffffffffffffffffffffffffffffffffffffffff168484604051610fff9190612528565b60006040518083038185875af1925050503d806000811461103c576040519150601f19603f3d011682016040523d82523d6000602084013e611041565b606091505b50915091508161092a57805160208201fd5b60025473ffffffffffffffffffffffffffffffffffffffff1633148061107857503330145b610df4576040517f08c379a000000000000000000000000000000000000000000000000000000000815260206004820152600a60248201527f6f6e6c79206f776e6572000000000000000000000000000000000000000000006044820152606401610ac1565b3073ffffffffffffffffffffffffffffffffffffffff7f00000000000000000000000000000000000000000000000000000000000000001614806111ab57507f000000000000000000000000000000000000000000000000000000000000000073ffffffffffffffffffffffffffffffffffffffff166111927f360894a13ba1a3210667c828492db98dca3e2076cc3735a920a3ca505d382bbc5473ffffffffffffffffffffffffffffffffffffffff1690565b73ffffffffffffffffffffffffffffffffffffffff1614155b15610df4576040517fe07c8dba00000000000000000000000000000000000000000000000000000000815260040160405180910390fd5b610ea7611053565b8173ffffffffffffffffffffffffffffffffffffffff166352d1902d6040518163ffffffff1660e01b8152600401602060405180830381865afa92505050801561126f575060408051601f3d9081017fffffffffffffffffffffffffffffffffffffffffffffffffffffffffffffffe016820190925261126c918101906124ba565b60015b6112bd576040517f4c9c8ce300000000000000000000000000000000000000000000000000000000815273ffffffffffffffffffffffffffffffffffffffff83166004820152602401610ac1565b7f360894a13ba1a3210667c828492db98dca3e2076cc3735a920a3ca505d382bbc8114611319576040517faa1d49a400000000000000000000000000000000000000000000000000000000815260048101829052602401610ac1565b61070a838361145d565b3073ffffffffffffffffffffffffffffffffffffffff7f00000000000000000000000000000000000000000000000000000000000000001614610df4576040517fe07c8dba00000000000000000000000000000000000000000000000000000000815260040160405180910390fd5b60008061139d6114c0565b6000546040517f4bc8e31c00000000000000000000000000000000000000000000000000000000815292945090925073ffffffffffffffffffffffffffffffffffffffff1690634bc8e31c906113fd90859085908990899060040161267c565b60006040518083038186803b15801561141557600080fd5b505afa158015611429573d6000803e3d6000fd5b5050505050505050565b60008060008061144386866117ec565b9250925092506114538282611839565b5090949350505050565b6114668261193d565b60405173ffffffffffffffffffffffffffffffffffffffff8316907fbc7cd75a20ee27fd9adebab32041f755214dbc6bffa90cc0225b39da2e5c2d3b90600090a28051156114b85761070a8282611a0c565b6109fb611a8f565b6114c8611ca7565b6000806114d836600481846126e1565b8101906114e5919061276e565b905060006020806114f68180612502565b6115009190612502565b61150a9190612502565b6020808061151a61010082612502565b6115249190612502565b61152e9190612502565b6115389190612502565b611543906004612502565b61154d9190612502565b9050600060208061155e8180612502565b6115689190612502565b6115729190612502565b60208061157f8180612502565b6115899190612502565b6115939190612502565b602080806115a361010082612502565b6115ad9190612502565b6115b79190612502565b6115c19190612502565b6115cb9190612502565b84604001516115da9190612515565b6115e49190612515565b905060006115f28284612502565b9050600080366020808061160861010082612502565b6116129190612502565b61161c9190612502565b6116269190612502565b611631906004612502565b9060208061163f8180612502565b6116499190612502565b6116539190612502565b6020808061166361010082612502565b61166d9190612502565b6116779190612502565b6116819190612502565b61168c906004612502565b6116969190612502565b926116a3939291906126e1565b8080601f01602080910402602001604051908101604052809392919081815260200183838082843760009201829052509394506116e8925085915087905036846126e1565b8080601f016020809104026020016040519081016040528093929190818152602001838380828437600092018290525093945085925061172a9150611ac79050565b60405160200161173a9190612843565b604080517fffffffffffffffffffffffffffffffffffffffffffffffffffffffffffffffe08184030181529082905261177892918590602001612852565b6040516020818303038152906040529050600060028260405161179b9190612528565b602060405180830381855afa1580156117b8573d6000803e3d6000fd5b5050506040513d601f19601f820116820180604052508101906117db91906124ba565b979a97995096975050505050505050565b600080600083516041036118265760208401516040850151606086015160001a61181888828585611adc565b955095509550505050611832565b50508151600091506002905b9250925092565b600082600381111561184d5761184d61253a565b03611856575050565b600182600381111561186a5761186a61253a565b036118a1576040517ff645eedf00000000000000000000000000000000000000000000000000000000815260040160405180910390fd5b60028260038111156118b5576118b561253a565b036118ef576040517ffce698f700000000000000000000000000000000000000000000000000000000815260048101829052602401610ac1565b60038260038111156119035761190361253a565b036109fb576040517fd78bce0c00000000000000000000000000000000000000000000000000000000815260048101829052602401610ac1565b8073ffffffffffffffffffffffffffffffffffffffff163b6000036119a6576040517f4c9c8ce300000000000000000000000000000000000000000000000000000000815273ffffffffffffffffffffffffffffffffffffffff82166004820152602401610ac1565b7f360894a13ba1a3210667c828492db98dca3e2076cc3735a920a3ca505d382bbc80547fffffffffffffffffffffffff00000000000000000000000000000000000000001673ffffffffffffffffffffffffffffffffffffffff92909216919091179055565b60606000808473ffffffffffffffffffffffffffffffffffffffff1684604051611a369190612528565b600060405180830381855af49150503d8060008114611a71576040519150601f19603f3d011682016040523d82523d6000602084013e611a76565b606091505b5091509150611a86858383611bd6565b95945050505050565b3415610df4576040517fb398979f00000000000000000000000000000000000000000000000000000000815260040160405180910390fd5b611acf611ca7565b611ad7611ca7565b919050565b600080807f7fffffffffffffffffffffffffffffff5d576e7357a4501ddfe92f46681b20a0841115611b175750600091506003905082611bcc565b604080516000808252602082018084528a905260ff891692820192909252606081018790526080810186905260019060a0016020604051602081039080840390855afa158015611b6b573d6000803e3d6000fd5b50506040517fffffffffffffffffffffffffffffffffffffffffffffffffffffffffffffffe0015191505073ffffffffffffffffffffffffffffffffffffffff8116611bc257506000925060019150829050611bcc565b9250600091508190505b9450945094915050565b606082611beb57611be682611c65565b61061f565b8151158015611c0f575073ffffffffffffffffffffffffffffffffffffffff84163b155b15611c5e576040517f9996b31500000000000000000000000000000000000000000000000000000000815273ffffffffffffffffffffffffffffffffffffffff85166004820152602401610ac1565b508061061f565b805115611c755780518082602001fd5b6040517fd6bda27500000000000000000000000000000000000000000000000000000000815260040160405180910390fd5b6040518060800160405280611cba611cf3565b81526000602080830182905260408084018390528051608081018252838152918201839052810182905260608181019290925291015290565b60408051606081019091526000815260208101611d0e611d1a565b81526020016000905290565b6040518061010001604052806008906020820280368337509192915050565b80357fffffffff0000000000000000000000000000000000000000000000000000000081168114611ad757600080fd5b600060208284031215611d7b57600080fd5b61061f82611d39565b73ffffffffffffffffffffffffffffffffffffffff81168114610ea757600080fd5b60008083601f840112611db857600080fd5b50813567ffffffffffffffff811115611dd057600080fd5b602083019150836020828501011115611de857600080fd5b9250929050565b600080600080600060808688031215611e0757600080fd5b8535611e1281611d84565b94506020860135611e2281611d84565b935060408601359250606086013567ffffffffffffffff811115611e4557600080fd5b611e5188828901611da6565b969995985093965092949392505050565b600080600060608486031215611e7757600080fd5b833567ffffffffffffffff811115611e8e57600080fd5b84016101208187031215611ea157600080fd5b95602085013595506040909401359392505050565b60008083601f840112611ec857600080fd5b50813567ffffffffffffffff811115611ee057600080fd5b6020830191508360208260051b8501011115611de857600080fd5b60008060208385031215611f0e57600080fd5b823567ffffffffffffffff811115611f2557600080fd5b611f3185828601611eb6565b90969095509350505050565b600060208284031215611f4f57600080fd5b50919050565b60008060408385031215611f6857600080fd5b8235611f7381611d84565b946020939093013593505050565b7f4e487b7100000000000000000000000000000000000000000000000000000000600052604160045260246000fd5b6040516080810167ffffffffffffffff81118282101715611fd357611fd3611f81565b60405290565b6040516060810167ffffffffffffffff81118282101715611fd357611fd3611f81565b604051610100810167ffffffffffffffff81118282101715611fd357611fd3611f81565b600082601f83011261203157600080fd5b813567ffffffffffffffff8082111561204c5761204c611f81565b604051601f83017fffffffffffffffffffffffffffffffffffffffffffffffffffffffffffffffe0908116603f0116810190828211818310171561209257612092611f81565b816040528381528660208588010111156120ab57600080fd5b836020870160208301376000602085830101528094505050505092915050565b600080604083850312156120de57600080fd5b82356120e981611d84565b9150602083013567ffffffffffffffff81111561210557600080fd5b61211185828601612020565b9150509250929050565b600080600083850361024081121561213257600080fd5b6102008082121561214257600080fd5b85945084013592505061022083013561215a81611d84565b809150509250925092565b60005b83811015612180578181015183820152602001612168565b50506000910152565b600081518084526121a1816020860160208601612165565b601f017fffffffffffffffffffffffffffffffffffffffffffffffffffffffffffffffe0169290920160200192915050565b60208152600061061f6020830184612189565b600080600080606085870312156121fc57600080fd5b843561220781611d84565b935060208501359250604085013567ffffffffffffffff81111561222a57600080fd5b61223687828801611da6565b95989497509550505050565b60008060008060008060008060a0898b03121561225e57600080fd5b883561226981611d84565b9750602089013561227981611d84565b9650604089013567ffffffffffffffff8082111561229657600080fd5b6122a28c838d01611eb6565b909850965060608b01359150808211156122bb57600080fd5b6122c78c838d01611eb6565b909650945060808b01359150808211156122e057600080fd5b506122ed8b828c01611da6565b999c989b5096995094979396929594505050565b60008060006060848603121561231657600080fd5b833567ffffffffffffffff81111561232d57600080fd5b61233986828701612020565b9660208601359650604090950135949350505050565b60008060008060008060a0878903121561236857600080fd5b863561237381611d84565b9550602087013561238381611d84565b94506040870135935060608701359250608087013567ffffffffffffffff8111156123ad57600080fd5b6123b989828a01611da6565b979a9699509497509295939492505050565b7f4e487b7100000000000000000000000000000000000000000000000000000000600052603260045260246000fd5b600082357fffffffffffffffffffffffffffffffffffffffffffffffffffffffffffffffa183360301811261242e57600080fd5b9190910192915050565b60006020828403121561244a57600080fd5b813561061f81611d84565b60008083357fffffffffffffffffffffffffffffffffffffffffffffffffffffffffffffffe184360301811261248a57600080fd5b83018035915067ffffffffffffffff8211156124a557600080fd5b602001915036819003821315611de857600080fd5b6000602082840312156124cc57600080fd5b5051919050565b7f4e487b7100000000000000000000000000000000000000000000000000000000600052601160045260246000fd5b808201808211156105fa576105fa6124d3565b818103818111156105fa576105fa6124d3565b6000825161242e818460208701612165565b7f4e487b7100000000000000000000000000000000000000000000000000000000600052602160045260246000fd5b80517fffffffff0000000000000000000000000000000000000000000000000000000081511683526020808201516020850160005b60088110156125bb5782518252918301919083019060010161259e565b5050505060400151600281106125fa577f4e487b7100000000000000000000000000000000000000000000000000000000600052602160045260246000fd5b610120830152602081810151610140840152604080830151610160850152606092830151805173ffffffffffffffffffffffffffffffffffffffff16610180860152918201517fffffffff00000000000000000000000000000000000000000000000000000000166101a08501528101516101c084015201516101e090910152565b610260810161268b8287612569565b8461020083015273ffffffffffffffffffffffffffffffffffffffff84166102208301527fffffffff00000000000000000000000000000000000000000000000000000000831661024083015295945050505050565b600080858511156126f157600080fd5b838611156126fe57600080fd5b5050820193919092039150565b803560028110611ad757600080fd5b60006080828403121561272c57600080fd5b612734611fb0565b9050813561274181611d84565b815261274f60208301611d39565b6020820152604082013560408201526060820135606082015292915050565b600081830361020081121561278257600080fd5b61278a611fb0565b6101408083121561279a57600080fd5b6127a2611fd9565b92506127ad85611d39565b8352602086603f8701126127c057600080fd5b6127c8611ffc565b806101208801898111156127db57600080fd5b602089015b818110156127f757803584529284019284016127e0565b508160208801526128078161270b565b60408801525050505082825280850135602083015250610160840135604082015261283685610180860161271a565b6060820152949350505050565b61020081016105fa8284612569565b60008451612864818460208901612165565b845190830190612878818360208901612165565b845191019061288b818360208801612165565b019594505050505056fea2646970667358221220ee419c02bb9d63b6b4a6ea9de93c384433f8005df133ca02c075c57c2b159b8764736f6c634300081700336080604052604051610010906100a8565b604051809103906000f08015801561002c573d6000803e3d6000fd5b50600080546001600160a01b0319166001600160a01b0392909216919091179055604051610059906100b5565b604051809103906000f080158015610075573d6000803e3d6000fd5b50600180546001600160a01b0319166001600160a01b03929092169190911790553480156100a257600080fd5b506100c2565b61194f8061075c83390190565b61351e806120ab83390190565b61068b806100d16000396000f3fe608060405234801561001057600080fd5b506004361061004c5760003560e01c80634bc8e31c146100515780634e8f939614610066578063a01b86d314610081578063bf877a43146100c6575b600080fd5b61006461005f366004610357565b6100e6565b005b61006e610265565b6040519081526020015b60405180910390f35b6000546100a19073ffffffffffffffffffffffffffffffffffffffff1681565b60405173ffffffffffffffffffffffffffffffffffffffff9091168152602001610078565b6001546100a19073ffffffffffffffffffffffffffffffffffffffff1681565b60016101016100fa36879003870187610447565b6040015190565b6001811115610112576101126103b0565b036101a8576000546040517f4bc8e31c00000000000000000000000000000000000000000000000000000000815273ffffffffffffffffffffffffffffffffffffffff90911690634bc8e31c906101739087908790879087906004016104f4565b60006040518083038186803b15801561018b57600080fd5b505afa15801561019f573d6000803e3d6000fd5b5050505061025f565b60006101bc6100fa36879003870187610447565b60018111156101cd576101cd6103b0565b0361025f576001546040517f4bc8e31c00000000000000000000000000000000000000000000000000000000815273ffffffffffffffffffffffffffffffffffffffff90911690634bc8e31c9061022e9087908790879087906004016104f4565b60006040518083038186803b15801561024657600080fd5b505afa15801561025a573d6000803e3d6000fd5b505050505b50505050565b600154604080517f4e8f9396000000000000000000000000000000000000000000000000000000008152905160009273ffffffffffffffffffffffffffffffffffffffff1691634e8f93969160048083019260209291908290030181865afa1580156102d5573d6000803e3d6000fd5b505050506040513d601f19601f820116820180604052508101906102f9919061063c565b905090565b803573ffffffffffffffffffffffffffffffffffffffff8116811461032257600080fd5b919050565b80357fffffffff000000000000000000000000000000000000000000000000000000008116811461032257600080fd5b60008060008084860361026081121561036f57600080fd5b6102008082121561037f57600080fd5b8695508501359350610396905061022085016102fe565b91506103a56102408601610327565b905092959194509250565b7f4e487b7100000000000000000000000000000000000000000000000000000000600052602160045260246000fd5b7f4e487b7100000000000000000000000000000000000000000000000000000000600052604160045260246000fd5b604051610100810167ffffffffffffffff81118282101715610432576104326103df565b60405290565b80356002811061032257600080fd5b6000610140828403121561045a57600080fd5b6040516060810181811067ffffffffffffffff8211171561047d5761047d6103df565b60405261048983610327565b8152602084603f85011261049c57600080fd5b6104a461040e565b806101208601878111156104b757600080fd5b602087015b818110156104d357803584529284019284016104bc565b508160208601526104e381610438565b604086015250929695505050505050565b61026081017fffffffff000000000000000000000000000000000000000000000000000000008061052488610327565b168352610100602088016020850137610120610541818901610438565b60028110610578577f4e487b7100000000000000000000000000000000000000000000000000000000600052602160045260246000fd5b908401526101408781013590840152610160808801359084015261018073ffffffffffffffffffffffffffffffffffffffff6105b5828a016102fe565b16908401526101a0816105c9898301610327565b1690840152506101c086810135908301526101e08087013590830152610200820185905273ffffffffffffffffffffffffffffffffffffffff84166102208301527fffffffff00000000000000000000000000000000000000000000000000000000831661024083015295945050505050565b60006020828403121561064e57600080fd5b505191905056fea26469706673582212209ec2ba5dd953a836c595b97634a7cb25fa9fd1b51331da16f9997a390139ecc664736f6c6343000817003360e060405234801561001057600080fd5b507fb15b078d354dd79180221c1782ce5dc76100427b7332c24b4b2167b7ab78d47c60c05261003d6100b4565b1561005b57604051633d23e4d160e11b815260040160405180910390fd5b60405163deafbeef60e01b9061007090610105565b6001600160e01b03199091168152602001604051809103906000f08015801561009d573d6000803e3d6000fd5b506001600160a01b031660a0526001608052610112565b600046600114806100c5575046600a145b806100d1575046612105145b806100dd57504661a4b1145b806100e957504661a4ba145b806100f45750466089145b80610100575046610144145b905090565b610c2380610d2c83390190565b60805160a05160c051610bca6101626000396000818160d401528181610107015281816101e2015261060f015260008181607101526101a401526000818161012e01526102580152610bca6000f3fe608060405234801561001057600080fd5b50600436106100675760003560e01c80634e8f9396116100505780634e8f9396146100d25780638d98dea9146101025780639a44ea841461012957600080fd5b806308c84e701461006c5780634bc8e31c146100bd575b600080fd5b6100937f000000000000000000000000000000000000000000000000000000000000000081565b60405173ffffffffffffffffffffffffffffffffffffffff90911681526020015b60405180910390f35b6100d06100cb366004610797565b61015d565b005b7f00000000000000000000000000000000000000000000000000000000000000005b6040519081526020016100b4565b6100f47f000000000000000000000000000000000000000000000000000000000000000081565b6101507f000000000000000000000000000000000000000000000000000000000000000081565b6040516100b4919061081f565b61017461016f3686900386018661099a565b610256565b61018d6101863686900386018661099a565b838361030e565b73ffffffffffffffffffffffffffffffffffffffff7f00000000000000000000000000000000000000000000000000000000000000001663ab750e756101e06101db36889003880188610a57565b61069f565b7f0000000000000000000000000000000000000000000000000000000000000000866040518463ffffffff1660e01b815260040161022093929190610a7b565b60006040518083038186803b15801561023857600080fd5b505afa15801561024c573d6000803e3d6000fd5b5050505050505050565b7f00000000000000000000000000000000000000000000000000000000000000006001811115610288576102886107f0565b815160400151600181111561029f5761029f6107f0565b1461030b576040517f08c379a000000000000000000000000000000000000000000000000000000000815260206004820152601260248201527f496e76616c69642070726f6f66206d6f6465000000000000000000000000000060448201526064015b60405180910390fd5b50565b8173ffffffffffffffffffffffffffffffffffffffff1683606001516000015173ffffffffffffffffffffffffffffffffffffffff16146103ab576040517f08c379a000000000000000000000000000000000000000000000000000000000815260206004820152600e60248201527f496e76616c69642070726f7665720000000000000000000000000000000000006044820152606401610302565b807bffffffffffffffffffffffffffffffffffffffffffffffffffffffff19168360600151602001517bffffffffffffffffffffffffffffffffffffffffffffffffffffffff19161461045a576040517f08c379a000000000000000000000000000000000000000000000000000000000815260206004820152601060248201527f496e76616c69642073656c6563746f72000000000000000000000000000000006044820152606401610302565b43836060015160400151106104f1576040517f08c379a000000000000000000000000000000000000000000000000000000000815260206004820152602760248201527f496e76616c696420626c6f636b206e756d6265723a20626c6f636b2066726f6d60448201527f20667574757265000000000000000000000000000000000000000000000000006064820152608401610302565b436101008460600151604001516105089190610af5565b1015610596576040517f08c379a000000000000000000000000000000000000000000000000000000000815260206004820152602360248201527f496e76616c696420626c6f636b206e756d6265723a20626c6f636b20746f6f2060448201527f6f6c6400000000000000000000000000000000000000000000000000000000006064820152608401610302565b606080840151604081015191015190401461060d576040517f08c379a000000000000000000000000000000000000000000000000000000000815260206004820152601260248201527f496e76616c696420626c6f636b206861736800000000000000000000000000006044820152606401610302565b7f000000000000000000000000000000000000000000000000000000000000000083602001511461069a576040517f08c379a000000000000000000000000000000000000000000000000000000000815260206004820152601660248201527f43616c6c47756573744964206d69736d617463686564000000000000000000006044820152606401610302565b505050565b60606001826040015160018111156106b9576106b96107f0565b036107125750602081810151519151604080517fffffffff000000000000000000000000000000000000000000000000000000009092169282019290925260248082019390935281518082039093018352604401905290565b8151602080840151604051610728939201610b35565b6040516020818303038152906040529050919050565b919050565b803573ffffffffffffffffffffffffffffffffffffffff8116811461073e57600080fd5b80357fffffffff000000000000000000000000000000000000000000000000000000008116811461073e57600080fd5b6000806000808486036102608112156107af57600080fd5b610200808212156107bf57600080fd5b86955085013593506107d690506102208501610743565b91506107e56102408601610767565b905092959194509250565b7f4e487b7100000000000000000000000000000000000000000000000000000000600052602160045260246000fd5b602081016002831061085a577f4e487b7100000000000000000000000000000000000000000000000000000000600052602160045260246000fd5b91905290565b7f4e487b7100000000000000000000000000000000000000000000000000000000600052604160045260246000fd5b604051610100810167ffffffffffffffff811182821017156108b3576108b3610860565b60405290565b6040516080810167ffffffffffffffff811182821017156108b3576108b3610860565b80356002811061073e57600080fd5b600061014082840312156108fe57600080fd5b6040516060810181811067ffffffffffffffff8211171561092157610921610860565b60405290508061093083610767565b8152602084603f85011261094357600080fd5b61094b61088f565b8061012086018781111561095e57600080fd5b602087015b8181101561097a5780358452928401928401610963565b5081602086015261098a816108dc565b6040860152505050505092915050565b60008183036102008112156109ae57600080fd5b6109b66108b9565b6109c085856108eb565b81526101408401356020820152610160840135604082015260807ffffffffffffffffffffffffffffffffffffffffffffffffffffffffffffffe8083011215610a0857600080fd5b610a106108b9565b9150610a1f6101808501610743565b8252610a2e6101a08501610767565b60208301526101c084013560408301526101e09093013560608083019190915283015250919050565b60006101408284031215610a6a57600080fd5b610a7483836108eb565b9392505050565b606081526000845180606084015260005b81811015610aa95760208188018101516080868401015201610a8c565b5060006080828501015260807fffffffffffffffffffffffffffffffffffffffffffffffffffffffffffffffe0601f830116840101915050836020830152826040830152949350505050565b80820180821115610b2f577f4e487b7100000000000000000000000000000000000000000000000000000000600052601160045260246000fd5b92915050565b7fffffffff00000000000000000000000000000000000000000000000000000000831681526000600482018360005b6008811015610b83578151835260209283019290910190600101610b64565b50505061010482019050939250505056fea2646970667358221220e8446c5493bb4c65a08ee7358511f7bf54ab5dbf5e6507da8f42c59c008c9dce64736f6c6343000817003360a060405234801561001057600080fd5b50604051610c23380380610c2383398101604081905261002f91610041565b6001600160e01b031916608052610072565b60006020828403121561005357600080fd5b81516001600160e01b03198116811461006b57600080fd5b9392505050565b608051610b826100a16000396000818160710152818161012e0152818161026d01526103180152610b826000f3fe608060405234801561001057600080fd5b50600436106100675760003560e01c80633a115bb1116100505780633a115bb1146100de57806366cf0e4b146101a7578063ab750e75146101ba57600080fd5b8063053c238d1461006c5780631599ead5146100c9575b600080fd5b6100937f000000000000000000000000000000000000000000000000000000000000000081565b6040517fffffffff0000000000000000000000000000000000000000000000000000000090911681526020015b60405180910390f35b6100dc6100d736600461087d565b6101cd565b005b61019a6100ec3660046108b8565b604080518082019091526060815260006020820152604080518082019091527fffffffff000000000000000000000000000000000000000000000000000000007f0000000000000000000000000000000000000000000000000000000000000000166060820152606481018390528060848101604080517fffffffffffffffffffffffffffffffffffffffffffffffffffffffffffffffe08184030181529190528152602001929092525090565b6040516100c091906108f5565b61019a6101b5366004610959565b6101e7565b6100dc6101c836600461097b565b610218565b6101e46101da82806109fa565b8360200135610235565b50565b6040805180820190915260608152600060208201526102116100ec61020c85856103ec565b610599565b9392505050565b61022f848461022a61020c86866103ec565b610235565b50505050565b610243600460008486610a66565b61024c91610a90565b7bffffffffffffffffffffffffffffffffffffffffffffffffffffffff19167f00000000000000000000000000000000000000000000000000000000000000007bffffffffffffffffffffffffffffffffffffffffffffffffffffffff19161461034b576102be600460008486610a66565b6102c791610a90565b6040517fb8b38d4c0000000000000000000000000000000000000000000000000000000081527fffffffff0000000000000000000000000000000000000000000000000000000091821660048201527f0000000000000000000000000000000000000000000000000000000000000000909116602482015260440160405180910390fd5b604080516020810183905201604080517fffffffffffffffffffffffffffffffffffffffffffffffffffffffffffffffe0818403018152919052805160209091012061039a8360048187610a66565b6040516103a8929190610ad8565b6040518091039020146103e7576040517f439cc0cd00000000000000000000000000000000000000000000000000000000815260040160405180910390fd5b505050565b6103f4610838565b6040518060a00160405280848152602001600280604051610438907f72697363302e53797374656d5374617465000000000000000000000000000000815260110190565b602060405180830381855afa158015610455573d6000803e3d6000fd5b5050506040513d601f19601f820116820180604052508101906104789190610ae8565b604080516020810192909252600090820181905260608201527f01000000000000000000000000000000000000000000000000000000000000006064820152606601604080517fffffffffffffffffffffffffffffffffffffffffffffffffffffffffffffffe0818403018152908290526104f291610b01565b602060405180830381855afa15801561050f573d6000803e3d6000fd5b5050506040513d601f19601f820116820180604052508101906105329190610ae8565b815260200160405180604001604052806000600281111561055557610555610b1d565b8152602001600060ff1681525081526020016000801b815260200161059060405180604001604052808681526020016000801b815250610773565b90529392505050565b60006002806040516105ce907f72697363302e52656365697074436c61696d0000000000000000000000000000815260120190565b602060405180830381855afa1580156105eb573d6000803e3d6000fd5b5050506040513d601f19601f8201168201806040525081019061060e9190610ae8565b6060840151845160208601516080870151604088015151601890600281111561063957610639610b1d565b60408a810151602090810151825191820199909952908101969096526060860194909452608085019290925260a084015263ffffffff909116901b60e01b7fffffffff000000000000000000000000000000000000000000000000000000001660c082015260f89190911b7fff000000000000000000000000000000000000000000000000000000000000001660c48201527f040000000000000000000000000000000000000000000000000000000000000060c882015260ca015b604080517fffffffffffffffffffffffffffffffffffffffffffffffffffffffffffffffe08184030181529082905261072d91610b01565b602060405180830381855afa15801561074a573d6000803e3d6000fd5b5050506040513d601f19601f8201168201806040525081019061076d9190610ae8565b92915050565b60006002806040516107a8907f72697363302e4f757470757400000000000000000000000000000000000000008152600c0190565b602060405180830381855afa1580156107c5573d6000803e3d6000fd5b5050506040513d601f19601f820116820180604052508101906107e89190610ae8565b835160208086015160408051928301949094529281019190915260608101919091527f020000000000000000000000000000000000000000000000000000000000000060808201526082016106f5565b6040805160a08101825260008082526020820152908101610869604080518082019091526000808252602082015290565b815260006020820181905260409091015290565b60006020828403121561088f57600080fd5b813567ffffffffffffffff8111156108a657600080fd5b82016040818503121561021157600080fd5b6000602082840312156108ca57600080fd5b5035919050565b60005b838110156108ec5781810151838201526020016108d4565b50506000910152565b602081526000825160406020840152805180606085015261091d8160808601602085016108d1565b60209490940151604084015250506080601f9092017fffffffffffffffffffffffffffffffffffffffffffffffffffffffffffffffe016010190565b6000806040838503121561096c57600080fd5b50508035926020909101359150565b6000806000806060858703121561099157600080fd5b843567ffffffffffffffff808211156109a957600080fd5b818701915087601f8301126109bd57600080fd5b8135818111156109cc57600080fd5b8860208285010111156109de57600080fd5b6020928301999098509187013596604001359550909350505050565b60008083357fffffffffffffffffffffffffffffffffffffffffffffffffffffffffffffffe1843603018112610a2f57600080fd5b83018035915067ffffffffffffffff821115610a4a57600080fd5b602001915036819003821315610a5f57600080fd5b9250929050565b60008085851115610a7657600080fd5b83861115610a8357600080fd5b5050820193919092039150565b7fffffffff000000000000000000000000000000000000000000000000000000008135818116916004851015610ad05780818660040360031b1b83161692505b505092915050565b8183823760009101908152919050565b600060208284031215610afa57600080fd5b5051919050565b60008251610b138184602087016108d1565b9190910192915050565b7f4e487b7100000000000000000000000000000000000000000000000000000000600052602160045260246000fdfea264697066735822122015f8c9833e211f638cce826865ff70ccd717ec25188b43e83ca33411f2e88e0b64736f6c6343000817003360e060405234801561001057600080fd5b507fb15b078d354dd79180221c1782ce5dc76100427b7332c24b4b2167b7ab78d47c60c05260006080526040517fa516a057c9fbf5629106300934d48e0e775d4230e41e503347cad96fcbde7e2e907f0eb6febcf06c5df079111be116f79bd8c7e85dc9448776ef9a59aaf2624ab5519061008a906100c3565b9182526020820152604001604051809103906000f0801580156100b1573d6000803e3d6000fd5b506001600160a01b031660a0526100d0565b61283480610cea83390190565b60805160a05160c051610bca6101206000396000818160d401528181610107015281816101e2015261060f015260008181607101526101a401526000818161012e01526102580152610bca6000f3fe608060405234801561001057600080fd5b50600436106100675760003560e01c80634e8f9396116100505780634e8f9396146100d25780638d98dea9146101025780639a44ea841461012957600080fd5b806308c84e701461006c5780634bc8e31c146100bd575b600080fd5b6100937f000000000000000000000000000000000000000000000000000000000000000081565b60405173ffffffffffffffffffffffffffffffffffffffff90911681526020015b60405180910390f35b6100d06100cb366004610797565b61015d565b005b7f00000000000000000000000000000000000000000000000000000000000000005b6040519081526020016100b4565b6100f47f000000000000000000000000000000000000000000000000000000000000000081565b6101507f000000000000000000000000000000000000000000000000000000000000000081565b6040516100b4919061081f565b61017461016f3686900386018661099a565b610256565b61018d6101863686900386018661099a565b838361030e565b73ffffffffffffffffffffffffffffffffffffffff7f00000000000000000000000000000000000000000000000000000000000000001663ab750e756101e06101db36889003880188610a57565b61069f565b7f0000000000000000000000000000000000000000000000000000000000000000866040518463ffffffff1660e01b815260040161022093929190610a7b565b60006040518083038186803b15801561023857600080fd5b505afa15801561024c573d6000803e3d6000fd5b5050505050505050565b7f00000000000000000000000000000000000000000000000000000000000000006001811115610288576102886107f0565b815160400151600181111561029f5761029f6107f0565b1461030b576040517f08c379a000000000000000000000000000000000000000000000000000000000815260206004820152601260248201527f496e76616c69642070726f6f66206d6f6465000000000000000000000000000060448201526064015b60405180910390fd5b50565b8173ffffffffffffffffffffffffffffffffffffffff1683606001516000015173ffffffffffffffffffffffffffffffffffffffff16146103ab576040517f08c379a000000000000000000000000000000000000000000000000000000000815260206004820152600e60248201527f496e76616c69642070726f7665720000000000000000000000000000000000006044820152606401610302565b807bffffffffffffffffffffffffffffffffffffffffffffffffffffffff19168360600151602001517bffffffffffffffffffffffffffffffffffffffffffffffffffffffff19161461045a576040517f08c379a000000000000000000000000000000000000000000000000000000000815260206004820152601060248201527f496e76616c69642073656c6563746f72000000000000000000000000000000006044820152606401610302565b43836060015160400151106104f1576040517f08c379a000000000000000000000000000000000000000000000000000000000815260206004820152602760248201527f496e76616c696420626c6f636b206e756d6265723a20626c6f636b2066726f6d60448201527f20667574757265000000000000000000000000000000000000000000000000006064820152608401610302565b436101008460600151604001516105089190610af5565b1015610596576040517f08c379a000000000000000000000000000000000000000000000000000000000815260206004820152602360248201527f496e76616c696420626c6f636b206e756d6265723a20626c6f636b20746f6f2060448201527f6f6c6400000000000000000000000000000000000000000000000000000000006064820152608401610302565b606080840151604081015191015190401461060d576040517f08c379a000000000000000000000000000000000000000000000000000000000815260206004820152601260248201527f496e76616c696420626c6f636b206861736800000000000000000000000000006044820152606401610302565b7f000000000000000000000000000000000000000000000000000000000000000083602001511461069a576040517f08c379a000000000000000000000000000000000000000000000000000000000815260206004820152601660248201527f43616c6c47756573744964206d69736d617463686564000000000000000000006044820152606401610302565b505050565b60606001826040015160018111156106b9576106b96107f0565b036107125750602081810151519151604080517fffffffff000000000000000000000000000000000000000000000000000000009092169282019290925260248082019390935281518082039093018352604401905290565b8151602080840151604051610728939201610b35565b6040516020818303038152906040529050919050565b919050565b803573ffffffffffffffffffffffffffffffffffffffff8116811461073e57600080fd5b80357fffffffff000000000000000000000000000000000000000000000000000000008116811461073e57600080fd5b6000806000808486036102608112156107af57600080fd5b610200808212156107bf57600080fd5b86955085013593506107d690506102208501610743565b91506107e56102408601610767565b905092959194509250565b7f4e487b7100000000000000000000000000000000000000000000000000000000600052602160045260246000fd5b602081016002831061085a577f4e487b7100000000000000000000000000000000000000000000000000000000600052602160045260246000fd5b91905290565b7f4e487b7100000000000000000000000000000000000000000000000000000000600052604160045260246000fd5b604051610100810167ffffffffffffffff811182821017156108b3576108b3610860565b60405290565b6040516080810167ffffffffffffffff811182821017156108b3576108b3610860565b80356002811061073e57600080fd5b600061014082840312156108fe57600080fd5b6040516060810181811067ffffffffffffffff8211171561092157610921610860565b60405290508061093083610767565b8152602084603f85011261094357600080fd5b61094b61088f565b8061012086018781111561095e57600080fd5b602087015b8181101561097a5780358452928401928401610963565b5081602086015261098a816108dc565b6040860152505050505092915050565b60008183036102008112156109ae57600080fd5b6109b66108b9565b6109c085856108eb565b81526101408401356020820152610160840135604082015260807ffffffffffffffffffffffffffffffffffffffffffffffffffffffffffffffe8083011215610a0857600080fd5b610a106108b9565b9150610a1f6101808501610743565b8252610a2e6101a08501610767565b60208301526101c084013560408301526101e09093013560608083019190915283015250919050565b60006101408284031215610a6a57600080fd5b610a7483836108eb565b9392505050565b606081526000845180606084015260005b81811015610aa95760208188018101516080868401015201610a8c565b5060006080828501015260807fffffffffffffffffffffffffffffffffffffffffffffffffffffffffffffffe0601f830116840101915050836020830152826040830152949350505050565b80820180821115610b2f577f4e487b7100000000000000000000000000000000000000000000000000000000600052601160045260246000fd5b92915050565b7fffffffff00000000000000000000000000000000000000000000000000000000831681526000600482018360005b6008811015610b83578151835260209283019290910190600101610b64565b50505061010482019050939250505056fea2646970667358221220ae5beb3aa40c55ca1f480579273e46701607df1d763839fc420334f10571fc3064736f6c634300081700336101006040523480156200001257600080fd5b506040516200283438038062002834833981016040819052620000359162001101565b6200004082620002d2565b6001600160801b031990811660a0521660805260c08190526040517f72697363302e47726f74683136526563656970745665726966696572506172618152656d657465727360d01b60208201526002908190602601602060405180830381855afa158015620000b3573d6000803e3d6000fd5b5050506040513d601f19601f82011682018060405250810190620000d8919062001126565b836200022a8460008190506008817eff00ff00ff00ff00ff00ff00ff00ff00ff00ff00ff00ff00ff00ff00ff00ff16901b6008827fff00ff00ff00ff00ff00ff00ff00ff00ff00ff00ff00ff00ff00ff00ff00ff0016901c1790506010817dffff0000ffff0000ffff0000ffff0000ffff0000ffff0000ffff0000ffff16901b6010827fffff0000ffff0000ffff0000ffff0000ffff0000ffff0000ffff0000ffff000016901c1790506020817bffffffff00000000ffffffff00000000ffffffff00000000ffffffff16901b6020827fffffffff00000000ffffffff00000000ffffffff00000000ffffffff0000000016901c17905060408177ffffffffffffffff0000000000000000ffffffffffffffff16901b6040827fffffffffffffffff0000000000000000ffffffffffffffff000000000000000016901c179050608081901b608082901c179050919050565b6200023462000441565b60408051602081019590955284019290925260608301526080820152600360f81b60a082015260a20160408051601f1981840301815290829052620002799162001172565b602060405180830381855afa15801562000297573d6000803e3d6000fd5b5050506040513d601f19601f82011682018060405250810190620002bc919062001126565b6001600160e01b03191660e052506200121e9050565b60008080620004278460008190506008817eff00ff00ff00ff00ff00ff00ff00ff00ff00ff00ff00ff00ff00ff00ff00ff16901b6008827fff00ff00ff00ff00ff00ff00ff00ff00ff00ff00ff00ff00ff00ff00ff00ff0016901c1790506010817dffff0000ffff0000ffff0000ffff0000ffff0000ffff0000ffff0000ffff16901b6010827fffff0000ffff0000ffff0000ffff0000ffff0000ffff0000ffff0000ffff000016901c1790506020817bffffffff00000000ffffffff00000000ffffffff00000000ffffffff16901b6020827fffffffff00000000ffffffff00000000ffffffff00000000ffffffff0000000016901c17905060408177ffffffffffffffff0000000000000000ffffffffffffffff16901b6040827fffffffffffffffff0000000000000000ffffffffffffffff000000000000000016901c179050608081901b608082901c179050919050565b608081901b956001600160801b0319909116945092505050565b60408051600680825260e082019092526000918291906020820160c08036833701905050905060027f12ac9a25dcd5e1a832a9061a082c15dd1d61aa9c4d553505739d0f5d65dc3be47f025aa744581ebe7ad91731911c898569106ff5a2d30f3eee2b23c60ee980acd4604051602001620004c6929190918252602082015260400190565b60408051601f1981840301815290829052620004e29162001172565b602060405180830381855afa15801562000500573d6000803e3d6000fd5b5050506040513d601f19601f8201168201806040525081019062000525919062001126565b816000815181106200053b576200053b62001187565b60200260200101818152505060027f0707b920bc978c02f292fae2036e057be54294114ccc3c8769d883f688a1423f7f2e32a094b7589554f7bc357bf63481acd2d55555c203383782a4650787ff6642604051602001620005a6929190918252602082015260400190565b60408051601f1981840301815290829052620005c29162001172565b602060405180830381855afa158015620005e0573d6000803e3d6000fd5b5050506040513d601f19601f8201168201806040525081019062000605919062001126565b816001815181106200061b576200061b62001187565b60200260200101818152505060027f0bca36e2cbe6394b3e249751853f961511011c7148e336f4fd974644850fc3477f2ede7c9acf48cf3a3729fa3d68714e2a8435d4fa6db8f7f409c153b1fcdf9b8b60405160200162000686929190918252602082015260400190565b60408051601f1981840301815290829052620006a29162001172565b602060405180830381855afa158015620006c0573d6000803e3d6000fd5b5050506040513d601f19601f82011682018060405250810190620006e5919062001126565b81600281518110620006fb57620006fb62001187565b60200260200101818152505060027f1b8af999dbfbb3927c091cc2aaf201e488cbacc3e2c6b6fb5a25f9112e04f2a77f2b91a26aa92e1b6f5722949f192a81c850d586d81a60157f3e9cf04f679cccd660405160200162000766929190918252602082015260400190565b60408051601f1981840301815290829052620007829162001172565b602060405180830381855afa158015620007a0573d6000803e3d6000fd5b5050506040513d601f19601f82011682018060405250810190620007c5919062001126565b81600381518110620007db57620007db62001187565b60200260200101818152505060027f2b5f494ed674235b8ac1750bdfd5a7615f002d4a1dcefeddd06eda5a076ccd0d7f2fe520ad2020aab9cbba817fcbb9a863b8a76ff88f14f912c5e71665b2ad5e8260405160200162000846929190918252602082015260400190565b60408051601f1981840301815290829052620008629162001172565b602060405180830381855afa15801562000880573d6000803e3d6000fd5b5050506040513d601f19601f82011682018060405250810190620008a5919062001126565b81600481518110620008bb57620008bb62001187565b60200260200101818152505060027f0f1c3c0d5d9da0fa03666843cde4e82e869ba5252fce3c25d5940320b1c4d4937f214bfcff74f425f6fe8c0d07b307482d8bc8bb2f3608f68287aa01bd0b69e80960405160200162000926929190918252602082015260400190565b60408051601f1981840301815290829052620009429162001172565b602060405180830381855afa15801562000960573d6000803e3d6000fd5b5050506040513d601f19601f8201168201806040525081019062000985919062001126565b816005815181106200099b576200099b62001187565b602002602001018181525050600280604051620009db907f72697363305f67726f746831362e566572696679696e674b65790000000000008152601a0190565b602060405180830381855afa158015620009f9573d6000803e3d6000fd5b5050506040513d601f19601f8201168201806040525081019062000a1e919062001126565b60027f2d4d9aa7e302d9df41749d5507949d05dbea33fbb16c643b22f599a2be6df2e27f14bedd503c37ceb061d8ec60209fe345ce89830a19230301f076caff004d192660405160200162000a7d929190918252602082015260400190565b60408051601f198184030181529082905262000a999162001172565b602060405180830381855afa15801562000ab7573d6000803e3d6000fd5b5050506040513d601f19601f8201168201806040525081019062000adc919062001126565b604080517f0967032fcbf776d1afc985f88877f182d38480a653f2decaa9794cbc3bf3060c60208201527f0e187847ad4c798374d0d6732bf501847dd68bc0e071241e0213bc7fc13db7ab918101919091527f304cfbd1e08a704a99f5e847d93f8c3caafddec46b7a0d379da69a4d112346a760608201527f1739c1b1a457a8c7313123d24d2f9192f896b7c63eea05a9d57f06547ad0cec8608082015260029060a00160408051601f198184030181529082905262000b9c9162001172565b602060405180830381855afa15801562000bba573d6000803e3d6000fd5b5050506040513d601f19601f8201168201806040525081019062000bdf919062001126565b604080517f198e9393920d483a7260bfb731fb5d25f1aa493335a9e71297e485b7aef312c260208201527f1800deef121f1e76426a00665e5c4479674322d4f75edadd46debd5cd992f6ed918101919091527f090689d0585ff075ec9e99ad690c3395bc4b313370b38ef355acdadcd122975b60608201527f12c85ea5db8c6deb4aab71808dcb408fe3d1e7690c43d37b4ce6cc0166fa7daa608082015260029060a00160408051601f198184030181529082905262000c9f9162001172565b602060405180830381855afa15801562000cbd573d6000803e3d6000fd5b5050506040513d601f19601f8201168201806040525081019062000ce2919062001126565b604080517f03b03cd5effa95ac9bee94f1f5ef907157bda4812ccf0b4c91f42bb629f83a1c60208201527f1aa085ff28179a12d922dba0547057ccaae94b9d69cfaa4e60401fea7f3e0333918101919091527f110c10134f200b19f6490846d518c9aea868366efb7228ca5c91d2940d03076260608201527f1e60f31fcbf757e837e867178318832d0b2d74d59e2fea1c7142df187d3fc6d3608082015260029060a00160408051601f198184030181529082905262000da29162001172565b602060405180830381855afa15801562000dc0573d6000803e3d6000fd5b5050506040513d601f19601f8201168201806040525081019062000de5919062001126565b62000e66600260405162000e1c907f72697363305f67726f746831362e566572696679696e674b65792e49430000008152601d0190565b602060405180830381855afa15801562000e3a573d6000803e3d6000fd5b5050506040513d601f19601f8201168201806040525081019062000e5f919062001126565b8862000f01565b6040805160208101979097528601949094526060850192909252608084015260a083015260c0820152600560f81b60e082015260e20160408051601f198184030181529082905262000eb89162001172565b602060405180830381855afa15801562000ed6573d6000803e3d6000fd5b5050506040513d601f19601f8201168201806040525081019062000efb919062001126565b91505090565b600080805b835181101562000f665762000f5b8585836001885162000f2791906200119d565b62000f3391906200119d565b8151811062000f465762000f4662001187565b60200260200101518462000f7060201b60201c565b915060010162000f06565b5090505b92915050565b60408051600280825260608201835260009283929190602083019080368337019050509050838160008151811062000fac5762000fac62001187565b602002602001018181525050828160018151811062000fcf5762000fcf62001187565b602090810291909101015262000fe6858262000fef565b95945050505050565b604080516000808252602082019092526200100c84848362001014565b949350505050565b600080620010298451620010c960201b60201c565b9050600060088261ffff16901c60088361ffff16901b1760f01b9050600286868684604051602001620010609493929190620011bf565b60408051601f19818403018152908290526200107c9162001172565b602060405180830381855afa1580156200109a573d6000803e3d6000fd5b5050506040513d601f19601f82011682018060405250810190620010bf919062001126565b9695505050505050565b600061ffff821115620010fd576040516306dfcc6560e41b8152601060048201526024810183905260440160405180910390fd5b5090565b600080604083850312156200111557600080fd5b505080516020909101519092909150565b6000602082840312156200113957600080fd5b5051919050565b6000815160005b8181101562001163576020818501810151868301520162001147565b50600093019283525090919050565b600062001180828462001140565b9392505050565b634e487b7160e01b600052603260045260246000fd5b8181038181111562000f6a57634e487b7160e01b600052601160045260246000fd5b8481526000602080830186516020880160005b82811015620011f057815184529284019290840190600101620011d2565b505050620011ff818762001140565b6001600160f01b03199590951685525050600290920195945050505050565b60805160a05160c05160e0516115bb620012796000396000818160870152818161082401526108cf01526000818160f901526109a8015260008181610151015261096f0152600081816101a9015261094701526115bb6000f3fe608060405234801561001057600080fd5b506004361061007d5760003560e01c806334baeab91161005b57806334baeab9146101295780638989fa2e1461014c5780639181e4b1146101a4578063ab750e75146101cb57600080fd5b8063053c238d146100825780631599ead5146100df578063258038e2146100f4575b600080fd5b6100a97f000000000000000000000000000000000000000000000000000000000000000081565b6040517fffffffff0000000000000000000000000000000000000000000000000000000090911681526020015b60405180910390f35b6100f26100ed3660046110a7565b6101de565b005b61011b7f000000000000000000000000000000000000000000000000000000000000000081565b6040519081526020016100d6565b61013c6101373660046110fa565b6101f8565b60405190151581526020016100d6565b6101737f000000000000000000000000000000000000000000000000000000000000000081565b6040517fffffffffffffffffffffffffffffffff0000000000000000000000000000000090911681526020016100d6565b6101737f000000000000000000000000000000000000000000000000000000000000000081565b6100f26101d9366004611160565b6107ca565b6101f56101eb82806111df565b83602001356107ec565b50565b6000610758565b7f30644e72e131a029b85045b68181585d2833e84879b9709143e1f593f000000181106101f5576000805260206000f35b600060405183815284602082015285604082015260408160608360076107d05a03fa915081610263576000805260206000f35b825160408201526020830151606082015260408360808360066107d05a03fa91505080610294576000805260206000f35b5050505050565b7f12ac9a25dcd5e1a832a9061a082c15dd1d61aa9c4d553505739d0f5d65dc3be485527f025aa744581ebe7ad91731911c898569106ff5a2d30f3eee2b23c60ee980acd460208601526000608086018661033887357f2e32a094b7589554f7bc357bf63481acd2d55555c203383782a4650787ff66427f0707b920bc978c02f292fae2036e057be54294114ccc3c8769d883f688a1423f84610230565b61038860208801357f2ede7c9acf48cf3a3729fa3d68714e2a8435d4fa6db8f7f409c153b1fcdf9b8b7f0bca36e2cbe6394b3e249751853f961511011c7148e336f4fd974644850fc34784610230565b6103d860408801357f2b91a26aa92e1b6f5722949f192a81c850d586d81a60157f3e9cf04f679cccd67f1b8af999dbfbb3927c091cc2aaf201e488cbacc3e2c6b6fb5a25f9112e04f2a784610230565b61042860608801357f2fe520ad2020aab9cbba817fcbb9a863b8a76ff88f14f912c5e71665b2ad5e827f2b5f494ed674235b8ac1750bdfd5a7615f002d4a1dcefeddd06eda5a076ccd0d84610230565b61047860808801357f214bfcff74f425f6fe8c0d07b307482d8bc8bb2f3608f68287aa01bd0b69e8097f0f1c3c0d5d9da0fa03666843cde4e82e869ba5252fce3c25d5940320b1c4d49384610230565b50823581527f30644e72e131a029b85045b68181585d97816a916871ca8d3c208c16d87cfd4760208401357f30644e72e131a029b85045b68181585d97816a916871ca8d3c208c16d87cfd4703066020820152833560408201526020840135606082015260408401356080820152606084013560a08201527f2d4d9aa7e302d9df41749d5507949d05dbea33fbb16c643b22f599a2be6df2e260c08201527f14bedd503c37ceb061d8ec60209fe345ce89830a19230301f076caff004d192660e08201527f0967032fcbf776d1afc985f88877f182d38480a653f2decaa9794cbc3bf3060c6101008201527f0e187847ad4c798374d0d6732bf501847dd68bc0e071241e0213bc7fc13db7ab6101208201527f304cfbd1e08a704a99f5e847d93f8c3caafddec46b7a0d379da69a4d112346a76101408201527f1739c1b1a457a8c7313123d24d2f9192f896b7c63eea05a9d57f06547ad0cec8610160820152600087015161018082015260206000018701516101a08201527f198e9393920d483a7260bfb731fb5d25f1aa493335a9e71297e485b7aef312c26101c08201527f1800deef121f1e76426a00665e5c4479674322d4f75edadd46debd5cd992f6ed6101e08201527f090689d0585ff075ec9e99ad690c3395bc4b313370b38ef355acdadcd122975b6102008201527f12c85ea5db8c6deb4aab71808dcb408fe3d1e7690c43d37b4ce6cc0166fa7daa610220820152843561024082015260208501356102608201527f03b03cd5effa95ac9bee94f1f5ef907157bda4812ccf0b4c91f42bb629f83a1c6102808201527f1aa085ff28179a12d922dba0547057ccaae94b9d69cfaa4e60401fea7f3e03336102a08201527f110c10134f200b19f6490846d518c9aea868366efb7228ca5c91d2940d0307626102c08201527f1e60f31fcbf757e837e867178318832d0b2d74d59e2fea1c7142df187d3fc6d36102e08201526020816103008360086107d05a03fa9051169695505050505050565b604051610380810160405261077060008401356101ff565b61077d60208401356101ff565b61078a60408401356101ff565b61079760608401356101ff565b6107a460808401356101ff565b6107b160a08401356101ff565b6107be818486888a61029b565b90508060005260206000f35b6107e684846107e16107dc8686610a94565b610c43565b6107ec565b50505050565b6107fa60046000848661124b565b61080391611275565b7bffffffffffffffffffffffffffffffffffffffffffffffffffffffff19167f00000000000000000000000000000000000000000000000000000000000000007bffffffffffffffffffffffffffffffffffffffffffffffffffffffff1916146109025761087560046000848661124b565b61087e91611275565b6040517fb8b38d4c0000000000000000000000000000000000000000000000000000000081527fffffffff0000000000000000000000000000000000000000000000000000000091821660048201527f0000000000000000000000000000000000000000000000000000000000000000909116602482015260440160405180910390fd5b60008061090e83610e17565b90925090506000610922856004818961124b565b81019061092f9190611388565b8051602080830151604080850151815160a0810183527f0000000000000000000000000000000000000000000000000000000000000000608090811c82527f0000000000000000000000000000000000000000000000000000000000000000811c9582019590955289851c8184015288851c60608201527f00000000000000000000000000000000000000000000000000000000000000009481019490945290517f34baeab900000000000000000000000000000000000000000000000000000000815294955060009430946334baeab994610a119491939192600401611445565b602060405180830381865afa158015610a2e573d6000803e3d6000fd5b505050506040513d601f19601f82011682018060405250810190610a5291906114ec565b905080610a8b576040517f439cc0cd00000000000000000000000000000000000000000000000000000000815260040160405180910390fd5b50505050505050565b610a9c611062565b6040518060a00160405280848152602001600280604051610ae0907f72697363302e53797374656d5374617465000000000000000000000000000000815260110190565b602060405180830381855afa158015610afd573d6000803e3d6000fd5b5050506040513d601f19601f82011682018060405250810190610b20919061150e565b604080516020810192909252600090820181905260608201527f01000000000000000000000000000000000000000000000000000000000000006064820152606601604080517fffffffffffffffffffffffffffffffffffffffffffffffffffffffffffffffe081840301815290829052610b9a91611527565b602060405180830381855afa158015610bb7573d6000803e3d6000fd5b5050506040513d601f19601f82011682018060405250810190610bda919061150e565b8152602001604051806040016040528060006002811115610bfd57610bfd611556565b8152602001600060ff1681525081526020016000801b8152602001610c3860405180604001604052808681526020016000801b815250610f9d565b905290505b92915050565b6000600280604051610c78907f72697363302e52656365697074436c61696d0000000000000000000000000000815260120190565b602060405180830381855afa158015610c95573d6000803e3d6000fd5b5050506040513d601f19601f82011682018060405250810190610cb8919061150e565b60608401518451602086015160808701516040880151516018906002811115610ce357610ce3611556565b60408a810151602090810151825191820199909952908101969096526060860194909452608085019290925260a084015263ffffffff909116901b60e01b7fffffffff000000000000000000000000000000000000000000000000000000001660c082015260f89190911b7fff000000000000000000000000000000000000000000000000000000000000001660c48201527f040000000000000000000000000000000000000000000000000000000000000060c882015260ca015b604080517fffffffffffffffffffffffffffffffffffffffffffffffffffffffffffffffe081840301815290829052610dd791611527565b602060405180830381855afa158015610df4573d6000803e3d6000fd5b5050506040513d601f19601f82011682018060405250810190610c3d919061150e565b60008080610f6b8460008190506008817eff00ff00ff00ff00ff00ff00ff00ff00ff00ff00ff00ff00ff00ff00ff00ff16901b6008827fff00ff00ff00ff00ff00ff00ff00ff00ff00ff00ff00ff00ff00ff00ff00ff0016901c1790506010817dffff0000ffff0000ffff0000ffff0000ffff0000ffff0000ffff0000ffff16901b6010827fffff0000ffff0000ffff0000ffff0000ffff0000ffff0000ffff0000ffff000016901c1790506020817bffffffff00000000ffffffff00000000ffffffff00000000ffffffff16901b6020827fffffffff00000000ffffffff00000000ffffffff00000000ffffffff0000000016901c17905060408177ffffffffffffffff0000000000000000ffffffffffffffff16901b6040827fffffffffffffffff0000000000000000ffffffffffffffff000000000000000016901c179050608081901b608082901c179050919050565b608081901b957fffffffffffffffffffffffffffffffff00000000000000000000000000000000909116945092505050565b6000600280604051610fd2907f72697363302e4f757470757400000000000000000000000000000000000000008152600c0190565b602060405180830381855afa158015610fef573d6000803e3d6000fd5b5050506040513d601f19601f82011682018060405250810190611012919061150e565b835160208086015160408051928301949094529281019190915260608101919091527f02000000000000000000000000000000000000000000000000000000000000006080820152608201610d9f565b6040805160a08101825260008082526020820152908101611093604080518082019091526000808252602082015290565b815260006020820181905260409091015290565b6000602082840312156110b957600080fd5b813567ffffffffffffffff8111156110d057600080fd5b8201604081850312156110e257600080fd5b9392505050565b8060408101831015610c3d57600080fd5b6000806000806101a080868803121561111257600080fd5b61111c87876110e9565b945060c086018781111561112f57600080fd5b60408701945061113f88826110e9565b93505086818701111561115157600080fd5b50929591945092610100019150565b6000806000806060858703121561117657600080fd5b843567ffffffffffffffff8082111561118e57600080fd5b818701915087601f8301126111a257600080fd5b8135818111156111b157600080fd5b8860208285010111156111c357600080fd5b6020928301999098509187013596604001359550909350505050565b60008083357fffffffffffffffffffffffffffffffffffffffffffffffffffffffffffffffe184360301811261121457600080fd5b83018035915067ffffffffffffffff82111561122f57600080fd5b60200191503681900382131561124457600080fd5b9250929050565b6000808585111561125b57600080fd5b8386111561126857600080fd5b5050820193919092039150565b7fffffffff0000000000000000000000000000000000000000000000000000000081358181169160048510156112b55780818660040360031b1b83161692505b505092915050565b7f4e487b7100000000000000000000000000000000000000000000000000000000600052604160045260246000fd5b6040516060810167ffffffffffffffff8111828210171561130f5761130f6112bd565b60405290565b6040805190810167ffffffffffffffff8111828210171561130f5761130f6112bd565b600082601f83011261134957600080fd5b611351611315565b80604084018581111561136357600080fd5b845b8181101561137d578035845260209384019301611365565b509095945050505050565b6000610100828403121561139b57600080fd5b6113a36112ec565b6113ad8484611338565b8152604084605f8501126113c057600080fd5b6113c8611315565b8060c08601878111156113da57600080fd5b604087015b81811015611400576113f18982611338565b845260209093019284016113df565b508160208601526114118882611338565b604086015250929695505050505050565b8060005b60028110156107e6578151845260209384019390910190600101611426565b6101a081016114548287611422565b60408083018660005b600280821061146c57506114a7565b82518460005b83811015611490578251825260209283019290910190600101611472565b50505092840192506020919091019060010161145d565b505050506114b860c0830185611422565b61010082018360005b60058110156114e05781518352602092830192909101906001016114c1565b50505095945050505050565b6000602082840312156114fe57600080fd5b815180151581146110e257600080fd5b60006020828403121561152057600080fd5b5051919050565b6000825160005b81811015611548576020818601810151858301520161152e565b506000920191825250919050565b7f4e487b7100000000000000000000000000000000000000000000000000000000600052602160045260246000fdfea26469706673582212206005e712b764c2ffeeb77fcc71d619c03a8ea859c30bd912be2bea97cd1d883d64736f6c63430008170033",
  "devdoc": {
    "kind": "dev",
    "methods": {},
    "version": 1
  },
  "userdoc": {
    "kind": "user",
    "methods": {
      "createAccount((bytes32))": {
        "notice": "create an account, and return its address. returns the address even if the account is already deployed. Note that during UserOperation execution, this method is called only if the account is not deployed. This method returns an existing account address so that entryPoint.getSenderAddress() would work even after account creation"
      },
      "getAccountAddress((bytes32))": {
        "notice": "calculate the counterfactual address of this account as it would be returned by createAccount()"
      }
    },
    "notice": "A sample factory contract for SimpleAccount A UserOperations \"initCode\" holds the address of the factory, and a method call (to createAccount, in this sample factory). The factory's createAccount returns the target account address even if it is already installed. This way, the entryPoint.getSenderAddress() can be called either before or after the account is created.",
    "version": 1
  },
  "storageLayout": {
    "storage": [],
    "types": null
  }
}