{"abi":[{"type":"function","name":"proof","inputs":[],"outputs":[{"name":"","type":"tuple","internalType":"struct Proof","components":[{"name":"seal","type":"tuple","internalType":"struct Seal","components":[{"name":"verifierSelector","type":"bytes4","internalType":"bytes4"},{"name":"seal","type":"bytes32[8]","internalType":"bytes32[8]"},{"name":"mode","type":"uint8","internalType":"enum ProofMode"}]},{"name":"callGuestId","type":"bytes32","internalType":"bytes32"},{"name":"length","type":"uint256","internalType":"uint256"},{"name":"callAssumptions","type":"tuple","internalType":"struct CallAssumptions","components":[{"name":"proverContractAddress","type":"address","internalType":"address"},{"name":"functionSelector","type":"bytes4","internalType":"bytes4"},{"name":"settleBlockNumber","type":"uint256","internalType":"uint256"},{"name":"settleBlockHash","type":"bytes32","internalType":"bytes32"}]}]}],"stateMutability":"pure"},{"type":"function","name":"setBlock","inputs":[{"name":"blockNo","type":"uint256","internalType":"uint256"}],"outputs":[],"stateMutability":"nonpayable"},{"type":"function","name":"setChain","inputs":[{"name":"chainId","type":"uint256","internalType":"uint256"},{"name":"blockNo","type":"uint256","internalType":"uint256"}],"outputs":[],"stateMutability":"nonpayable"}],"bytecode":{"object":"0x6080604052348015600f57600080fd5b506103a78061001f6000396000f3fe608060405234801561001057600080fd5b50600436106100415760003560e01c806387cea3ae14610046578063faf924cf1461005b578063ffbc563814610079575b600080fd5b610059610054366004610247565b61008c565b005b610063610106565b6040516100709190610260565b60405180910390f35b610059610087366004610326565b61011b565b6040516343e751d760e11b8152600481018290527376dc9aa45aa006a0f63942d8f9f21bd4537972a3906387cea3ae906024016020604051808303816000875af11580156100de573d6000803e3d6000fd5b505050506040513d601f19601f820116820180604052508101906101029190610348565b5050565b61010e6101b5565b6101166101a0565b905090565b60405160016208753960e31b0319815260048101839052602481018290527376dc9aa45aa006a0f63942d8f9f21bd4537972a39063ffbc5638906044016020604051808303816000875af1158015610177573d6000803e3d6000fd5b505050506040513d601f19601f8201168201806040525081019061019b9190610348565b505050565b6101a86101b5565b6101b06101b5565b919050565b60405180608001604052806101c8610201565b81526000602080830182905260408084018390528051608081018252838152918201839052810182905260608181019290925291015290565b6040805160608101909152600081526020810161021c610228565b81526020016000905290565b6040518061010001604052806008906020820280368337509192915050565b60006020828403121561025957600080fd5b5035919050565b815180516001600160e01b031916825260208082015161020084019291840160005b60088110156102a1578251825260209283019290910190600101610282565b50505060400151600281106102c657634e487b7160e01b600052602160045260246000fd5b61012083015260208381015161014084015260408085015161016085015260609485015180516001600160a01b0316610180860152918201516001600160e01b0319166101a08501528101516101c0840152909201516101e09091015290565b6000806040838503121561033957600080fd5b50508035926020909101359150565b60006020828403121561035a57600080fd5b8151801515811461036a57600080fd5b939250505056fea2646970667358221220abc02de09700386a39c0a7c9adba85c5ed22e908bdcaa8674c95f43096fffdab64736f6c634300081c0033","linkReferences":{}},"methodIdentifiers":{"proof()":"faf924cf","setBlock(uint256)":"87cea3ae","setChain(uint256,uint256)":"ffbc5638"},"id":48}