{"abi":[{"type":"function","name":"CALL_ASSUMPTIONS_ENCODING_LENGTH","inputs":[],"outputs":[{"name":"","type":"uint256","internalType":"uint256"}],"stateMutability":"view"},{"type":"function","name":"FUNCTION_SELECTOR_ENCODING_LENGTH","inputs":[],"outputs":[{"name":"","type":"uint256","internalType":"uint256"}],"stateMutability":"view"},{"type":"function","name":"PROVER_CONTRACT_ADDRESS_ENCODING_LENGTH","inputs":[],"outputs":[{"name":"","type":"uint256","internalType":"uint256"}],"stateMutability":"view"},{"type":"function","name":"SETTLE_BLOCK_HASH_ENCODING_LENGTH","inputs":[],"outputs":[{"name":"","type":"uint256","internalType":"uint256"}],"stateMutability":"view"},{"type":"function","name":"SETTLE_BLOCK_NUMBER_ENCODING_LENGTH","inputs":[],"outputs":[{"name":"","type":"uint256","internalType":"uint256"}],"stateMutability":"view"}],"bytecode":{"object":"0x60f5610038600b82828239805160001a607314602b57634e487b7160e01b600052600060045260246000fd5b30600052607381538281f3fe7300000000000000000000000000000000000000003014608060405260043610605b5760003560e01c80631edbf9a914606057806332d628cd14606057806354ff28501460795780637475d58c146060578063a4e0c575146060575b600080fd5b6067602081565b60405190815260200160405180910390f35b6067602080608681806099565b608e91906099565b609691906099565b81565b8082018082111560b957634e487b7160e01b600052601160045260246000fd5b9291505056fea264697066735822122001abc3427fadd05f47b50ab8d61d8bdb922c9fd38f44db365626b2c4d3797e9564736f6c634300081c0033","linkReferences":{}},"methodIdentifiers":{"CALL_ASSUMPTIONS_ENCODING_LENGTH()":"54ff2850","FUNCTION_SELECTOR_ENCODING_LENGTH()":"a4e0c575","PROVER_CONTRACT_ADDRESS_ENCODING_LENGTH()":"32d628cd","SETTLE_BLOCK_HASH_ENCODING_LENGTH()":"7475d58c","SETTLE_BLOCK_NUMBER_ENCODING_LENGTH()":"1edbf9a9"},"id":44}