{"abi":[{"type":"function","name":"CALL_ASSUMPTIONS_OFFSET","inputs":[],"outputs":[{"name":"","type":"uint256","internalType":"uint256"}],"stateMutability":"view"},{"type":"function","name":"PROOF_ENCODING_LENGTH","inputs":[],"outputs":[{"name":"","type":"uint256","internalType":"uint256"}],"stateMutability":"view"}],"bytecode":{"object":"0x610113610039600b82828239805160001a607314602c57634e487b7160e01b600052600060045260246000fd5b30600052607381538281f3fe7300000000000000000000000000000000000000003014608060405260043610603d5760003560e01c8063cddf0a56146042578063e1a42c8814605a575b600080fd5b60486060565b60405190815260200160405180910390f35b60486089565b60208080606e6101008260b7565b6076919060b7565b607e919060b7565b6086919060b7565b81565b6020806094818060b7565b609c919060b7565b60a4919060b7565b6020808060b26101008260b7565b606e91905b8082018082111560d757634e487b7160e01b600052601160045260246000fd5b9291505056fea2646970667358221220006ad2f48d3a57952af525eabb46034f3b11e1d444069c2f5c4f8781e20b1e0664736f6c634300081a0033","linkReferences":{}},"methodIdentifiers":{"CALL_ASSUMPTIONS_OFFSET()":"cddf0a56","PROOF_ENCODING_LENGTH()":"e1a42c88"},"id":47}