{"abi":[{"type":"constructor","inputs":[{"name":"_prover","type":"address","internalType":"address"}],"stateMutability":"nonpayable"},{"type":"function","name":"approve","inputs":[{"name":"to","type":"address","internalType":"address"},{"name":"tokenId","type":"uint256","internalType":"uint256"}],"outputs":[],"stateMutability":"nonpayable"},{"type":"function","name":"balanceOf","inputs":[{"name":"owner","type":"address","internalType":"address"}],"outputs":[{"name":"","type":"uint256","internalType":"uint256"}],"stateMutability":"view"},{"type":"function","name":"getApproved","inputs":[{"name":"tokenId","type":"uint256","internalType":"uint256"}],"outputs":[{"name":"","type":"address","internalType":"address"}],"stateMutability":"view"},{"type":"function","name":"isApprovedForAll","inputs":[{"name":"owner","type":"address","internalType":"address"},{"name":"operator","type":"address","internalType":"address"}],"outputs":[{"name":"","type":"bool","internalType":"bool"}],"stateMutability":"view"},{"type":"function","name":"name","inputs":[],"outputs":[{"name":"","type":"string","internalType":"string"}],"stateMutability":"view"},{"type":"function","name":"ownerOf","inputs":[{"name":"tokenId","type":"uint256","internalType":"uint256"}],"outputs":[{"name":"","type":"address","internalType":"address"}],"stateMutability":"view"},{"type":"function","name":"prover","inputs":[],"outputs":[{"name":"","type":"address","internalType":"address"}],"stateMutability":"view"},{"type":"function","name":"safeTransferFrom","inputs":[{"name":"from","type":"address","internalType":"address"},{"name":"to","type":"address","internalType":"address"},{"name":"tokenId","type":"uint256","internalType":"uint256"}],"outputs":[],"stateMutability":"nonpayable"},{"type":"function","name":"safeTransferFrom","inputs":[{"name":"from","type":"address","internalType":"address"},{"name":"to","type":"address","internalType":"address"},{"name":"tokenId","type":"uint256","internalType":"uint256"},{"name":"data","type":"bytes","internalType":"bytes"}],"outputs":[],"stateMutability":"nonpayable"},{"type":"function","name":"setApprovalForAll","inputs":[{"name":"operator","type":"address","internalType":"address"},{"name":"approved","type":"bool","internalType":"bool"}],"outputs":[],"stateMutability":"nonpayable"},{"type":"function","name":"shiftOffset","inputs":[{"name":"data","type":"bytes","internalType":"bytes"},{"name":"shiftBy","type":"uint256","internalType":"uint256"},{"name":"offsetPosition","type":"uint256","internalType":"uint256"}],"outputs":[{"name":"","type":"bytes","internalType":"bytes"}],"stateMutability":"pure"},{"type":"function","name":"supportsInterface","inputs":[{"name":"interfaceId","type":"bytes4","internalType":"bytes4"}],"outputs":[{"name":"","type":"bool","internalType":"bool"}],"stateMutability":"view"},{"type":"function","name":"symbol","inputs":[],"outputs":[{"name":"","type":"string","internalType":"string"}],"stateMutability":"view"},{"type":"function","name":"tokenURI","inputs":[{"name":"tokenId","type":"uint256","internalType":"uint256"}],"outputs":[{"name":"","type":"string","internalType":"string"}],"stateMutability":"view"},{"type":"function","name":"transferFrom","inputs":[{"name":"from","type":"address","internalType":"address"},{"name":"to","type":"address","internalType":"address"},{"name":"tokenId","type":"uint256","internalType":"uint256"}],"outputs":[],"stateMutability":"nonpayable"},{"type":"function","name":"verifier","inputs":[],"outputs":[{"name":"","type":"address","internalType":"contract IProofVerifier"}],"stateMutability":"view"},{"type":"function","name":"verify","inputs":[{"name":"","type":"tuple","internalType":"struct Proof","components":[{"name":"seal","type":"tuple","internalType":"struct Seal","components":[{"name":"verifierSelector","type":"bytes4","internalType":"bytes4"},{"name":"seal","type":"bytes32[8]","internalType":"bytes32[8]"},{"name":"mode","type":"uint8","internalType":"enum ProofMode"}]},{"name":"callGuestId","type":"bytes32","internalType":"bytes32"},{"name":"length","type":"uint256","internalType":"uint256"},{"name":"callAssumptions","type":"tuple","internalType":"struct CallAssumptions","components":[{"name":"proverContractAddress","type":"address","internalType":"address"},{"name":"functionSelector","type":"bytes4","internalType":"bytes4"},{"name":"settleBlockNumber","type":"uint256","internalType":"uint256"},{"name":"settleBlockHash","type":"bytes32","internalType":"bytes32"}]}]},{"name":"username","type":"string","internalType":"string"},{"name":"account","type":"address","internalType":"address"}],"outputs":[],"stateMutability":"nonpayable"},{"type":"event","name":"Approval","inputs":[{"name":"owner","type":"address","indexed":true,"internalType":"address"},{"name":"approved","type":"address","indexed":true,"internalType":"address"},{"name":"tokenId","type":"uint256","indexed":true,"internalType":"uint256"}],"anonymous":false},{"type":"event","name":"ApprovalForAll","inputs":[{"name":"owner","type":"address","indexed":true,"internalType":"address"},{"name":"operator","type":"address","indexed":true,"internalType":"address"},{"name":"approved","type":"bool","indexed":false,"internalType":"bool"}],"anonymous":false},{"type":"event","name":"Transfer","inputs":[{"name":"from","type":"address","indexed":true,"internalType":"address"},{"name":"to","type":"address","indexed":true,"internalType":"address"},{"name":"tokenId","type":"uint256","indexed":true,"internalType":"uint256"}],"anonymous":false},{"type":"error","name":"ERC721IncorrectOwner","inputs":[{"name":"sender","type":"address","internalType":"address"},{"name":"tokenId","type":"uint256","internalType":"uint256"},{"name":"owner","type":"address","internalType":"address"}]},{"type":"error","name":"ERC721InsufficientApproval","inputs":[{"name":"operator","type":"address","internalType":"address"},{"name":"tokenId","type":"uint256","internalType":"uint256"}]},{"type":"error","name":"ERC721InvalidApprover","inputs":[{"name":"approver","type":"address","internalType":"address"}]},{"type":"error","name":"ERC721InvalidOperator","inputs":[{"name":"operator","type":"address","internalType":"address"}]},{"type":"error","name":"ERC721InvalidOwner","inputs":[{"name":"owner","type":"address","internalType":"address"}]},{"type":"error","name":"ERC721InvalidReceiver","inputs":[{"name":"receiver","type":"address","internalType":"address"}]},{"type":"error","name":"ERC721InvalidSender","inputs":[{"name":"sender","type":"address","internalType":"address"}]},{"type":"error","name":"ERC721NonexistentToken","inputs":[{"name":"tokenId","type":"uint256","internalType":"uint256"}]},{"type":"error","name":"InvalidChainId","inputs":[]}],"bytecode":{"object":"0x608060405234801561001057600080fd5b5060405161671f38038061671f83398101604081905261002f916101fc565b6040518060400160405280600a815260200169151dda5d1d195c93919560b21b815250604051806040016040528060048152602001631513919560e21b81525061007d6100df60201b60201c565b600080546001600160a01b0319166001600160a01b039290921691909117905560016100a983826102cb565b5060026100b682826102cb565b5050600780546001600160a01b0319166001600160a01b03939093169290921790915550610389565b60006100e9610153565b156100f45750600090565b46617a69148061010757506101076101a4565b1561013a57604051610118906101ef565b604051809103906000f080158015610134573d6000803e3d6000fd5b50905090565b604051633d23e4d160e11b815260040160405180910390fd5b60004660011480610164575046600a145b80610170575046612105145b8061017c57504661a4b1145b8061018857504661a4ba145b806101935750466089145b8061019f575046610144145b905090565b60004662aa36a714806101b957504662aa37dc145b806101c657504662014a34145b806101d357504662013882145b806101e057504662066eee145b8061019f57505061012c461490565b614aae80611c7183390190565b60006020828403121561020e57600080fd5b81516001600160a01b038116811461022557600080fd5b9392505050565b634e487b7160e01b600052604160045260246000fd5b600181811c9082168061025657607f821691505b60208210810361027657634e487b7160e01b600052602260045260246000fd5b50919050565b601f8211156102c657806000526020600020601f840160051c810160208510156102a35750805b601f840160051c820191505b818110156102c357600081556001016102af565b50505b505050565b81516001600160401b038111156102e4576102e461022c565b6102f8816102f28454610242565b8461027c565b6020601f82116001811461032c57600083156103145750848201515b600019600385901b1c1916600184901b1784556102c3565b600084815260208120601f198516915b8281101561035c578785015182556020948501946001909201910161033c565b508482101561037a5786840151600019600387901b60f8161c191681555b50505050600190811b01905550565b6118d9806103986000396000f3fe608060405234801561001057600080fd5b506004361061010b5760003560e01c80636352211e116100a2578063a22cb46511610071578063a22cb46514610228578063b88d4fde1461023b578063c87b56dd1461024e578063e5e2277314610261578063e985e9c51461027457600080fd5b80636352211e146101d95780636663d49b146101ec57806370a08231146101ff57806395d89b411461022057600080fd5b806323b872dd116100de57806323b872dd1461018d5780632b7ac3f3146101a057806332a8f30f146101b357806342842e0e146101c657600080fd5b806301ffc9a71461011057806306fdde0314610138578063081812fc1461014d578063095ea7b314610178575b600080fd5b61012361011e3660046110c0565b610287565b60405190151581526020015b60405180910390f35b6101406102d9565b60405161012f919061112d565b61016061015b366004611140565b61036b565b6040516001600160a01b03909116815260200161012f565b61018b610186366004611170565b610394565b005b61018b61019b36600461119a565b6103a3565b600054610160906001600160a01b031681565b600754610160906001600160a01b031681565b61018b6101d436600461119a565b610433565b6101606101e7366004611140565b610453565b61018b6101fa3660046112d7565b61045e565b61021261020d366004611355565b610483565b60405190815260200161012f565b6101406104cb565b61018b610236366004611370565b6104da565b61018b6102493660046113cc565b6104e5565b61014061025c366004611140565b6104fc565b61014061026f366004611434565b610571565b610123610282366004611482565b61060e565b60006001600160e01b031982166380ac58cd60e01b14806102b857506001600160e01b03198216635b5e139f60e01b145b806102d357506301ffc9a760e01b6001600160e01b03198316145b92915050565b6060600180546102e8906114b5565b80601f0160208091040260200160405190810160405280929190818152602001828054610314906114b5565b80156103615780601f1061033657610100808354040283529160200191610361565b820191906000526020600020905b81548152906001019060200180831161034457829003601f168201915b5050505050905090565b60006103768261063c565b506000828152600560205260409020546001600160a01b03166102d3565b61039f828233610675565b5050565b6001600160a01b0382166103d257604051633250574960e11b8152600060048201526024015b60405180910390fd5b60006103df838333610682565b9050836001600160a01b0316816001600160a01b03161461042d576040516364283d7b60e01b81526001600160a01b03808616600483015260248201849052821660448201526064016103c9565b50505050565b61044e838383604051806020016040528060008152506104e5565b505050565b60006102d38261063c565b6007546001600160a01b031663c822d5ef60e01b61047c828261077b565b5050505050565b60006001600160a01b0382166104af576040516322718ad960e21b8152600060048201526024016103c9565b506001600160a01b031660009081526004602052604090205490565b6060600280546102e8906114b5565b61039f3383836107f6565b6104f08484846103a3565b61042d84848484610895565b60606105078261063c565b50600061051f60408051602081019091526000815290565b9050600081511161053f576040518060200160405280600081525061056a565b80610549846109b7565b60405160200161055a9291906114ef565b6040516020818303038152906040525b9392505050565b60606000826020806105838180611534565b61058d9190611534565b6105979190611534565b6105a19190611534565b905080855110156105ed5760405162461bcd60e51b8152602060048201526016602482015275115b98dbd919590819185d18481d1bdbc81cda1bdc9d60521b60448201526064016103c9565b8481015160006105fd8683611547565b928701929092525093949350505050565b6001600160a01b03918216600090815260066020908152604080832093909416825291909152205460ff1690565b6000818152600360205260408120546001600160a01b0316806102d357604051637e27328960e01b8152600481018490526024016103c9565b61044e8383836001610a4a565b6000828152600360205260408120546001600160a01b03908116908316156106af576106af818486610b50565b6001600160a01b038116156106ed576106cc600085600080610a4a565b6001600160a01b038116600090815260046020526040902080546000190190555b6001600160a01b0385161561071c576001600160a01b0385166000908152600460205260409020805460010190555b60008481526003602052604080822080546001600160a01b0319166001600160a01b0389811691821790925591518793918516917fddf252ad1be2c89b69c2b068fc378daa952ba7f163c4a11628f55a4df523b3ef91a4949350505050565b600080610786610bb4565b6000546040516312f238c760e21b81529294509092506001600160a01b031690634bc8e31c906107c0908590859089908990600401611617565b60006040518083038186803b1580156107d857600080fd5b505afa1580156107ec573d6000803e3d6000fd5b5050505050505050565b6001600160a01b03821661082857604051630b61174360e31b81526001600160a01b03831660048201526024016103c9565b6001600160a01b03838116600081815260066020908152604080832094871680845294825291829020805460ff191686151590811790915591519182527f17307eab39ab6107e8899845ad3d59bd9653f200f220920489ca2b5937696c31910160405180910390a3505050565b6001600160a01b0383163b1561042d57604051630a85bd0160e11b81526001600160a01b0384169063150b7a02906108d7903390889087908790600401611657565b6020604051808303816000875af1925050508015610912575060408051601f3d908101601f1916820190925261090f91810190611694565b60015b61097b573d808015610940576040519150601f19603f3d011682016040523d82523d6000602084013e610945565b606091505b50805160000361097357604051633250574960e11b81526001600160a01b03851660048201526024016103c9565b805181602001fd5b6001600160e01b03198116630a85bd0160e11b1461047c57604051633250574960e11b81526001600160a01b03851660048201526024016103c9565b606060006109c483610ec2565b600101905060008167ffffffffffffffff8111156109e4576109e46111d7565b6040519080825280601f01601f191660200182016040528015610a0e576020820181803683370190505b5090508181016020015b600019016f181899199a1a9b1b9c1cb0b131b232b360811b600a86061a8153600a8504945084610a1857509392505050565b8080610a5e57506001600160a01b03821615155b15610b20576000610a6e8461063c565b90506001600160a01b03831615801590610a9a5750826001600160a01b0316816001600160a01b031614155b8015610aad5750610aab818461060e565b155b15610ad65760405163a9fbf51f60e01b81526001600160a01b03841660048201526024016103c9565b8115610b1e5783856001600160a01b0316826001600160a01b03167f8c5be1e5ebec7d5bd14f71427d1e84f3dd0314c0f7b2291e5b200ac8c7c3b92560405160405180910390a45b505b5050600090815260056020526040902080546001600160a01b0319166001600160a01b0392909216919091179055565b610b5b838383610f9a565b61044e576001600160a01b038316610b8957604051637e27328960e01b8152600481018290526024016103c9565b60405163177e802f60e01b81526001600160a01b0383166004820152602481018290526044016103c9565b610bbc611015565b600080610bcc36600481846116b1565b810190610bd99190611740565b90506000602080610bea8180611534565b610bf49190611534565b610bfe9190611534565b60208080610c0e61010082611534565b610c189190611534565b610c229190611534565b610c2c9190611534565b610c37906004611534565b610c419190611534565b90506000602080610c528180611534565b610c5c9190611534565b610c669190611534565b602080610c738180611534565b610c7d9190611534565b610c879190611534565b60208080610c9761010082611534565b610ca19190611534565b610cab9190611534565b610cb59190611534565b610cbf9190611534565b8460400151610cce9190611547565b610cd89190611547565b90506000610ce68284611534565b90506000803660208080610cfc61010082611534565b610d069190611534565b610d109190611534565b610d1a9190611534565b610d25906004611534565b90602080610d338180611534565b610d3d9190611534565b610d479190611534565b60208080610d5761010082611534565b610d619190611534565b610d6b9190611534565b610d759190611534565b610d80906004611534565b610d8a9190611534565b92610d97939291906116b1565b8080601f0160208091040260200160405190810160405280939291908181526020018383808284376000920182905250939450610ddc925085915087905036846116b1565b8080601f0160208091040260200160405190810160405280939291908181526020018383808284376000920182905250939450859250610e1e91506110009050565b604051602001610e2e919061181c565b60408051601f1981840301815290829052610e4e9291859060200161182b565b60405160208183030381529060405290506000600282604051610e71919061186e565b602060405180830381855afa158015610e8e573d6000803e3d6000fd5b5050506040513d601f19601f82011682018060405250810190610eb1919061188a565b979a97995096975050505050505050565b60008072184f03e93ff9f4daa797ed6e38ed64bf6a1f0160401b8310610f015772184f03e93ff9f4daa797ed6e38ed64bf6a1f0160401b830492506040015b6d04ee2d6d415b85acef81000000008310610f2d576d04ee2d6d415b85acef8100000000830492506020015b662386f26fc100008310610f4b57662386f26fc10000830492506010015b6305f5e1008310610f63576305f5e100830492506008015b6127108310610f7757612710830492506004015b60648310610f89576064830492506002015b600a83106102d35760010192915050565b60006001600160a01b03831615801590610ff85750826001600160a01b0316846001600160a01b03161480610fd45750610fd4848461060e565b80610ff857506000828152600560205260409020546001600160a01b038481169116145b949350505050565b611008611015565b611010611015565b919050565b6040518060800160405280611028611061565b81526000602080830182905260408084018390528051608081018252838152918201839052810182905260608181019290925291015290565b6040805160608101909152600081526020810161107c611088565b81526020016000905290565b6040518061010001604052806008906020820280368337509192915050565b6001600160e01b0319811681146110bd57600080fd5b50565b6000602082840312156110d257600080fd5b813561056a816110a7565b60005b838110156110f85781810151838201526020016110e0565b50506000910152565b600081518084526111198160208601602086016110dd565b601f01601f19169290920160200192915050565b60208152600061056a6020830184611101565b60006020828403121561115257600080fd5b5035919050565b80356001600160a01b038116811461101057600080fd5b6000806040838503121561118357600080fd5b61118c83611159565b946020939093013593505050565b6000806000606084860312156111af57600080fd5b6111b884611159565b92506111c660208501611159565b929592945050506040919091013590565b634e487b7160e01b600052604160045260246000fd5b6040516080810167ffffffffffffffff81118282101715611210576112106111d7565b60405290565b6040516060810167ffffffffffffffff81118282101715611210576112106111d7565b604051610100810167ffffffffffffffff81118282101715611210576112106111d7565b60008067ffffffffffffffff841115611278576112786111d7565b50604051601f19601f85018116603f0116810181811067ffffffffffffffff821117156112a7576112a76111d7565b6040528381529050808284018510156112bf57600080fd5b83836020830137600060208583010152509392505050565b60008060008385036102408112156112ee57600080fd5b6102008112156112fd57600080fd5b5083925061020084013567ffffffffffffffff81111561131c57600080fd5b8401601f8101861361132d57600080fd5b61133c8682356020840161125d565b92505061134c6102208501611159565b90509250925092565b60006020828403121561136757600080fd5b61056a82611159565b6000806040838503121561138357600080fd5b61138c83611159565b9150602083013580151581146113a157600080fd5b809150509250929050565b600082601f8301126113bd57600080fd5b61056a8383356020850161125d565b600080600080608085870312156113e257600080fd5b6113eb85611159565b93506113f960208601611159565b925060408501359150606085013567ffffffffffffffff81111561141c57600080fd5b611428878288016113ac565b91505092959194509250565b60008060006060848603121561144957600080fd5b833567ffffffffffffffff81111561146057600080fd5b61146c868287016113ac565b9660208601359650604090950135949350505050565b6000806040838503121561149557600080fd5b61149e83611159565b91506114ac60208401611159565b90509250929050565b600181811c908216806114c957607f821691505b6020821081036114e957634e487b7160e01b600052602260045260246000fd5b50919050565b600083516115018184602088016110dd565b8351908301906115158183602088016110dd565b01949350505050565b634e487b7160e01b600052601160045260246000fd5b808201808211156102d3576102d361151e565b818103818111156102d3576102d361151e565b805180516001600160e01b031916835260208082015190840160005b6008811015611595578251825260209283019290910190600101611576565b50505060400151600281106115ba57634e487b7160e01b600052602160045260246000fd5b61012083015260208181015161014084015260408083015161016085015260609283015180516001600160a01b0316610180860152918201516001600160e01b0319166101a08501528101516101c084015201516101e090910152565b6102608101611626828761155a565b6102008201949094526001600160a01b03929092166102208301526001600160e01b03191661024090910152919050565b6001600160a01b038581168252841660208201526040810183905260806060820181905260009061168a90830184611101565b9695505050505050565b6000602082840312156116a657600080fd5b815161056a816110a7565b600080858511156116c157600080fd5b838611156116ce57600080fd5b5050820193919092039150565b80356002811061101057600080fd5b6000608082840312156116fc57600080fd5b6117046111ed565b905061170f82611159565b8152602082013561171f816110a7565b60208201526040828101359082015260609182013591810191909152919050565b60008183036102008112801561175557600080fd5b5060006117606111ed565b61014083121561176e578182fd5b611776611216565b92508435611783816110a7565b8352603f85018613611793578182fd5b61179b611239565b806101208701888111156117ad578485fd5b602088015b818110156117ca5780358452602093840193016117b2565b508160208701526117da816116db565b604087810191909152958452505050610140850135602082015261016085013592810183905261180e8661018087016116ea565b606082015295945050505050565b61020081016102d3828461155a565b6000845161183d8184602089016110dd565b8451908301906118518183602089016110dd565b84519101906118648183602088016110dd565b0195945050505050565b600082516118808184602087016110dd565b9190910192915050565b60006020828403121561189c57600080fd5b505191905056fea2646970667358221220739b09a40f8ef78d20eda8f94e67e6988c24217dc163d6a78e3fa011ed36d5f564736f6c634300081c00336080604052604051600e9060a0565b604051809103906000f0801580156029573d6000803e3d6000fd5b50600080546001600160a01b0319166001600160a01b039290921691909117905560405160549060ad565b604051809103906000f080158015606f573d6000803e3d6000fd5b50600180546001600160a01b0319166001600160a01b0392909216919091179055348015609b57600080fd5b5060ba565b61149a8061061183390190565b61300380611aab83390190565b610548806100c96000396000f3fe608060405234801561001057600080fd5b506004361061004c5760003560e01c80634bc8e31c146100515780634e8f939614610066578063a01b86d314610081578063bf877a43146100ac575b600080fd5b61006461005f366004610299565b6100bf565b005b61006e6101f2565b6040519081526020015b60405180910390f35b600054610094906001600160a01b031681565b6040516001600160a01b039091168152602001610078565b600154610094906001600160a01b031681565b60016100da6100d33687900387018761037b565b6040015190565b60018111156100eb576100eb6102f3565b0361015b576000546040516312f238c760e21b81526001600160a01b0390911690634bc8e31c9061012690879087908790879060040161040b565b60006040518083038186803b15801561013e57600080fd5b505afa158015610152573d6000803e3d6000fd5b505050506101ec565b600061016f6100d33687900387018761037b565b6001811115610180576101806102f3565b036101ec576001546040516312f238c760e21b81526001600160a01b0390911690634bc8e31c906101bb90879087908790879060040161040b565b60006040518083038186803b1580156101d357600080fd5b505afa1580156101e7573d6000803e3d6000fd5b505050505b50505050565b60015460408051632747c9cb60e11b815290516000926001600160a01b031691634e8f93969160048083019260209291908290030181865afa15801561023c573d6000803e3d6000fd5b505050506040513d601f19601f8201168201806040525081019061026091906104f9565b905090565b80356001600160a01b038116811461027c57600080fd5b919050565b80356001600160e01b03198116811461027c57600080fd5b6000806000808486036102608112156102b157600080fd5b6102008112156102c057600080fd5b5084935061020084013592506102d96102208501610265565b91506102e86102408601610281565b905092959194509250565b634e487b7160e01b600052602160045260246000fd5b634e487b7160e01b600052604160045260246000fd5b6040516060810167ffffffffffffffff8111828210171561034257610342610309565b60405290565b604051610100810167ffffffffffffffff8111828210171561034257610342610309565b80356002811061027c57600080fd5b600061014082840312801561038f57600080fd5b50600061039a61031f565b6103a384610281565b815284603f8501126103b3578182fd5b6103bb610348565b806101208601878111156103cd578485fd5b602087015b818110156103ea5780358452602093840193016103d2565b508160208501526103fa8161036c565b604085015250919695505050505050565b61026081016001600160e01b031961042287610281565b16825261010060208701602084013761043e610120870161036c565b6002811061045c57634e487b7160e01b600052602160045260246000fd5b610120830152610140868101359083015261016080870135908301526001600160a01b0361048d6101808801610265565b166101808301526001600160e01b03196104aa6101a08801610281565b166101a08301526101c086810135908301526101e0808701359083015261020082018590526001600160a01b0384166102208301526001600160e01b0319831661024083015295945050505050565b60006020828403121561050b57600080fd5b505191905056fea2646970667358221220a00135e17620616bf3fad49bbd90b7eee86e2ab0e9f8c67f7780634f9a28a33f64736f6c634300081c003360e060405234801561001057600080fd5b507fb15b078d354dd79180221c1782ce5dc76100427b7332c24b4b2167b7ab78d47c60c05261003d6100b4565b1561005b57604051633d23e4d160e11b815260040160405180910390fd5b60405163deafbeef60e01b9061007090610105565b6001600160e01b03199091168152602001604051809103906000f08015801561009d573d6000803e3d6000fd5b506001600160a01b031660a0526001608052610112565b600046600114806100c5575046600a145b806100d1575046612105145b806100dd57504661a4b1145b806100e957504661a4ba145b806100f45750466089145b80610100575046610144145b905090565b6109e780610ab383390190565b60805160a05160c0516109526101616000396000818160b70152818160ea015281816101b801526104a30152600081816061015261017a015260008181610111015261022e01526109526000f3fe608060405234801561001057600080fd5b50600436106100575760003560e01c806308c84e701461005c5780634bc8e31c146100a05780634e8f9396146100b55780638d98dea9146100e55780639a44ea841461010c575b600080fd5b6100837f000000000000000000000000000000000000000000000000000000000000000081565b6040516001600160a01b0390911681526020015b60405180910390f35b6100b36100ae3660046105cd565b610140565b005b7f00000000000000000000000000000000000000000000000000000000000000005b604051908152602001610097565b6100d77f000000000000000000000000000000000000000000000000000000000000000081565b6101337f000000000000000000000000000000000000000000000000000000000000000081565b604051610097919061063d565b61015761015236869003860186610787565b61022c565b61017061016936869003860186610787565b83836102bf565b6001600160a01b037f00000000000000000000000000000000000000000000000000000000000000001663ab750e756101b66101b13688900388018861082f565b610512565b7f0000000000000000000000000000000000000000000000000000000000000000866040518463ffffffff1660e01b81526004016101f693929190610853565b60006040518083038186803b15801561020e57600080fd5b505afa158015610222573d6000803e3d6000fd5b5050505050505050565b7f0000000000000000000000000000000000000000000000000000000000000000600181111561025e5761025e610627565b815160400151600181111561027557610275610627565b146102bc5760405162461bcd60e51b8152602060048201526012602482015271496e76616c69642070726f6f66206d6f646560701b60448201526064015b60405180910390fd5b50565b816001600160a01b03168360600151600001516001600160a01b0316146103195760405162461bcd60e51b815260206004820152600e60248201526d24b73b30b634b210383937bb32b960911b60448201526064016102b3565b806001600160e01b0319168360600151602001516001600160e01b031916146103775760405162461bcd60e51b815260206004820152601060248201526f24b73b30b634b21039b2b632b1ba37b960811b60448201526064016102b3565b43836060015160400151106103de5760405162461bcd60e51b815260206004820152602760248201527f496e76616c696420626c6f636b206e756d6265723a20626c6f636b2066726f6d6044820152662066757475726560c81b60648201526084016102b3565b436101008460600151604001516103f591906108af565b101561044f5760405162461bcd60e51b815260206004820152602360248201527f496e76616c696420626c6f636b206e756d6265723a20626c6f636b20746f6f206044820152621bdb1960ea1b60648201526084016102b3565b60608084015160408101519101519040146104a15760405162461bcd60e51b8152602060048201526012602482015271092dcecc2d8d2c840c4d8dec6d640d0c2e6d60731b60448201526064016102b3565b7f000000000000000000000000000000000000000000000000000000000000000083602001511461050d5760405162461bcd60e51b815260206004820152601660248201527510d85b1b11dd595cdd1259081b5a5cdb585d18da195960521b60448201526064016102b3565b505050565b606060018260400151600181111561052c5761052c610627565b0361056d5750602081810151519151604080516001600160e01b03199092169282019290925260248082019390935281518082039093018352604401905290565b81516020808401516040516105839392016108d6565b6040516020818303038152906040529050919050565b919050565b80356001600160a01b038116811461059957600080fd5b80356001600160e01b03198116811461059957600080fd5b6000806000808486036102608112156105e557600080fd5b6102008112156105f457600080fd5b50849350610200840135925061060d610220850161059e565b915061061c61024086016105b5565b905092959194509250565b634e487b7160e01b600052602160045260246000fd5b602081016002831061065f57634e487b7160e01b600052602160045260246000fd5b91905290565b634e487b7160e01b600052604160045260246000fd5b6040516060810167ffffffffffffffff8111828210171561069e5761069e610665565b60405290565b604051610100810167ffffffffffffffff8111828210171561069e5761069e610665565b6040516080810167ffffffffffffffff8111828210171561069e5761069e610665565b80356002811061059957600080fd5b6000610140828403121561070d57600080fd5b61071561067b565b9050610720826105b5565b815282603f83011261073157600080fd5b6107396106a4565b8061012084018581111561074c57600080fd5b602085015b81811015610769578035845260209384019301610751565b50816020850152610779816106eb565b604085015250505092915050565b60008183036102008112801561079c57600080fd5b5060006107a76106c8565b6107b186866106fa565b815261014085013560208201526101608501356040820152608061017f19840112156107db578182fd5b6107e36106c8565b92506107f2610180860161059e565b83526108016101a086016105b5565b60208401526101c085013560408401526101e090940135606080840191909152840191909152509092915050565b6000610140828403121561084257600080fd5b61084c83836106fa565b9392505050565b606081526000845180606084015260005b818110156108815760208188018101516080868401015201610864565b506000608082850101526080601f19601f830116840101915050836020830152826040830152949350505050565b808201808211156108d057634e487b7160e01b600052601160045260246000fd5b92915050565b6001600160e01b03198316815260006004820183825b600881101561090b5781518352602092830192909101906001016108ec565b50505061010482019050939250505056fea2646970667358221220774f866081fe66c9f34d664da9b7aaf97e89f275d942197cb436fb980cb4c1bd64736f6c634300081c003360a060405234801561001057600080fd5b506040516109e73803806109e783398101604081905261002f91610041565b6001600160e01b031916608052610072565b60006020828403121561005357600080fd5b81516001600160e01b03198116811461006b57600080fd5b9392505050565b6080516109476100a06000396000818160610152818160ee015281816101fa015261025f01526109476000f3fe608060405234801561001057600080fd5b50600436106100575760003560e01c8063053c238d1461005c5780631599ead5146100a15780633a115bb1146100b657806366cf0e4b14610149578063ab750e751461015c575b600080fd5b6100837f000000000000000000000000000000000000000000000000000000000000000081565b6040516001600160e01b031990911681526020015b60405180910390f35b6100b46100af3660046106a5565b61016f565b005b61013c6100c43660046106e0565b604080518082019091526060815260006020820152604080518082019091526001600160e01b03197f000000000000000000000000000000000000000000000000000000000000000016606082015260648101839052806084810160408051601f198184030181529190528152602001929092525090565b604051610098919061071d565b61013c610157366004610763565b610189565b6100b461016a366004610785565b6101ba565b61018661017c8280610806565b83602001356101d7565b50565b6040805180820190915260608152600060208201526101b36100c46101ae85856102fc565b610463565b9392505050565b6101d184846101cc6101ae86866102fc565b6101d7565b50505050565b6101e5600460008486610854565b6101ee9161087e565b6001600160e01b0319167f00000000000000000000000000000000000000000000000000000000000000006001600160e01b0319161461029257610236600460008486610854565b61023f9161087e565b604051632e2ce35360e21b81526001600160e01b031991821660048201527f0000000000000000000000000000000000000000000000000000000000000000909116602482015260440160405180910390fd5b60408051602081018390520160408051601f1981840301815291905280516020909101206102c38360048187610854565b6040516102d19291906108b6565b6040518091039020146102f75760405163439cc0cd60e01b815260040160405180910390fd5b505050565b610304610660565b6040518060a0016040528084815260200160028060405161033c907072697363302e53797374656d537461746560781b815260110190565b602060405180830381855afa158015610359573d6000803e3d6000fd5b5050506040513d601f19601f8201168201806040525081019061037c91906108c6565b60408051602081019290925260009082018190526060820152600160f81b606482015260660160408051601f19818403018152908290526103bc916108df565b602060405180830381855afa1580156103d9573d6000803e3d6000fd5b5050506040513d601f19601f820116820180604052508101906103fc91906108c6565b815260200160405180604001604052806000600281111561041f5761041f6108fb565b8152602001600060ff1681525081526020016000801b815260200161045a60405180604001604052808681526020016000801b8152506105c8565b90529392505050565b600060028060405161048d907172697363302e52656365697074436c61696d60701b815260120190565b602060405180830381855afa1580156104aa573d6000803e3d6000fd5b5050506040513d601f19601f820116820180604052508101906104cd91906108c6565b606084015184516020860151608087015160408801515160189060028111156104f8576104f86108fb565b60408a810151602090810151825191820199909952908101969096526060860194909452608085019290925260a084015263ffffffff909116901b60e01b6001600160e01b03191660c082015260f89190911b6001600160f81b03191660c4820152600160fa1b60c882015260ca015b60408051601f1981840301815290829052610582916108df565b602060405180830381855afa15801561059f573d6000803e3d6000fd5b5050506040513d601f19601f820116820180604052508101906105c291906108c6565b92915050565b60006002806040516105ec906b1c9a5cd8cc0b93dd5d1c1d5d60a21b8152600c0190565b602060405180830381855afa158015610609573d6000803e3d6000fd5b5050506040513d601f19601f8201168201806040525081019061062c91906108c6565b83516020808601516040805192830194909452928101919091526060810191909152600160f91b6080820152608201610568565b6040805160a08101825260008082526020820152908101610691604080518082019091526000808252602082015290565b815260006020820181905260409091015290565b6000602082840312156106b757600080fd5b813567ffffffffffffffff8111156106ce57600080fd5b8201604081850312156101b357600080fd5b6000602082840312156106f257600080fd5b5035919050565b60005b838110156107145781810151838201526020016106fc565b50506000910152565b60208152600082516040602084015280518060608501526107458160808601602085016106f9565b60209490940151604084015250506080601f909201601f1916010190565b6000806040838503121561077657600080fd5b50508035926020909101359150565b6000806000806060858703121561079b57600080fd5b843567ffffffffffffffff8111156107b257600080fd5b8501601f810187136107c357600080fd5b803567ffffffffffffffff8111156107da57600080fd5b8760208284010111156107ec57600080fd5b602091820198909750908601359560400135945092505050565b6000808335601e1984360301811261081d57600080fd5b83018035915067ffffffffffffffff82111561083857600080fd5b60200191503681900382131561084d57600080fd5b9250929050565b6000808585111561086457600080fd5b8386111561087157600080fd5b5050820193919092039150565b80356001600160e01b031981169060048410156108af576001600160e01b0319600485900360031b81901b82161691505b5092915050565b8183823760009101908152919050565b6000602082840312156108d857600080fd5b5051919050565b600082516108f18184602087016106f9565b9190910192915050565b634e487b7160e01b600052602160045260246000fdfea26469706673582212207a14199177a689f1e947033dc182a072447a6d5ad80b608c7bac1f0ea078a9ba64736f6c634300081c003360e060405234801561001057600080fd5b507fb15b078d354dd79180221c1782ce5dc76100427b7332c24b4b2167b7ab78d47c60c05260006080526040517fa516a057c9fbf5629106300934d48e0e775d4230e41e503347cad96fcbde7e2e907f0eb6febcf06c5df079111be116f79bd8c7e85dc9448776ef9a59aaf2624ab5519061008a906100c3565b9182526020820152604001604051809103906000f0801580156100b1573d6000803e3d6000fd5b506001600160a01b031660a0526100d0565b61259280610a7183390190565b60805160a05160c05161095261011f6000396000818160b70152818160ea015281816101b801526104a30152600081816061015261017a015260008181610111015261022e01526109526000f3fe608060405234801561001057600080fd5b50600436106100575760003560e01c806308c84e701461005c5780634bc8e31c146100a05780634e8f9396146100b55780638d98dea9146100e55780639a44ea841461010c575b600080fd5b6100837f000000000000000000000000000000000000000000000000000000000000000081565b6040516001600160a01b0390911681526020015b60405180910390f35b6100b36100ae3660046105cd565b610140565b005b7f00000000000000000000000000000000000000000000000000000000000000005b604051908152602001610097565b6100d77f000000000000000000000000000000000000000000000000000000000000000081565b6101337f000000000000000000000000000000000000000000000000000000000000000081565b604051610097919061063d565b61015761015236869003860186610787565b61022c565b61017061016936869003860186610787565b83836102bf565b6001600160a01b037f00000000000000000000000000000000000000000000000000000000000000001663ab750e756101b66101b13688900388018861082f565b610512565b7f0000000000000000000000000000000000000000000000000000000000000000866040518463ffffffff1660e01b81526004016101f693929190610853565b60006040518083038186803b15801561020e57600080fd5b505afa158015610222573d6000803e3d6000fd5b5050505050505050565b7f0000000000000000000000000000000000000000000000000000000000000000600181111561025e5761025e610627565b815160400151600181111561027557610275610627565b146102bc5760405162461bcd60e51b8152602060048201526012602482015271496e76616c69642070726f6f66206d6f646560701b60448201526064015b60405180910390fd5b50565b816001600160a01b03168360600151600001516001600160a01b0316146103195760405162461bcd60e51b815260206004820152600e60248201526d24b73b30b634b210383937bb32b960911b60448201526064016102b3565b806001600160e01b0319168360600151602001516001600160e01b031916146103775760405162461bcd60e51b815260206004820152601060248201526f24b73b30b634b21039b2b632b1ba37b960811b60448201526064016102b3565b43836060015160400151106103de5760405162461bcd60e51b815260206004820152602760248201527f496e76616c696420626c6f636b206e756d6265723a20626c6f636b2066726f6d6044820152662066757475726560c81b60648201526084016102b3565b436101008460600151604001516103f591906108af565b101561044f5760405162461bcd60e51b815260206004820152602360248201527f496e76616c696420626c6f636b206e756d6265723a20626c6f636b20746f6f206044820152621bdb1960ea1b60648201526084016102b3565b60608084015160408101519101519040146104a15760405162461bcd60e51b8152602060048201526012602482015271092dcecc2d8d2c840c4d8dec6d640d0c2e6d60731b60448201526064016102b3565b7f000000000000000000000000000000000000000000000000000000000000000083602001511461050d5760405162461bcd60e51b815260206004820152601660248201527510d85b1b11dd595cdd1259081b5a5cdb585d18da195960521b60448201526064016102b3565b505050565b606060018260400151600181111561052c5761052c610627565b0361056d5750602081810151519151604080516001600160e01b03199092169282019290925260248082019390935281518082039093018352604401905290565b81516020808401516040516105839392016108d6565b6040516020818303038152906040529050919050565b919050565b80356001600160a01b038116811461059957600080fd5b80356001600160e01b03198116811461059957600080fd5b6000806000808486036102608112156105e557600080fd5b6102008112156105f457600080fd5b50849350610200840135925061060d610220850161059e565b915061061c61024086016105b5565b905092959194509250565b634e487b7160e01b600052602160045260246000fd5b602081016002831061065f57634e487b7160e01b600052602160045260246000fd5b91905290565b634e487b7160e01b600052604160045260246000fd5b6040516060810167ffffffffffffffff8111828210171561069e5761069e610665565b60405290565b604051610100810167ffffffffffffffff8111828210171561069e5761069e610665565b6040516080810167ffffffffffffffff8111828210171561069e5761069e610665565b80356002811061059957600080fd5b6000610140828403121561070d57600080fd5b61071561067b565b9050610720826105b5565b815282603f83011261073157600080fd5b6107396106a4565b8061012084018581111561074c57600080fd5b602085015b81811015610769578035845260209384019301610751565b50816020850152610779816106eb565b604085015250505092915050565b60008183036102008112801561079c57600080fd5b5060006107a76106c8565b6107b186866106fa565b815261014085013560208201526101608501356040820152608061017f19840112156107db578182fd5b6107e36106c8565b92506107f2610180860161059e565b83526108016101a086016105b5565b60208401526101c085013560408401526101e090940135606080840191909152840191909152509092915050565b6000610140828403121561084257600080fd5b61084c83836106fa565b9392505050565b606081526000845180606084015260005b818110156108815760208188018101516080868401015201610864565b506000608082850101526080601f19601f830116840101915050836020830152826040830152949350505050565b808201808211156108d057634e487b7160e01b600052601160045260246000fd5b92915050565b6001600160e01b03198316815260006004820183825b600881101561090b5781518352602092830192909101906001016108ec565b50505061010482019050939250505056fea26469706673582212202f317ecde1cbc6035f936759d4948b6b19fef352cf63fe9fc9a7ad9cc82bd39a64736f6c634300081c003361010060405234801561001157600080fd5b5060405161259238038061259283398101604081905261003091611074565b610039826102bf565b6001600160801b031990811660a0521660805260c08190526040517f72697363302e47726f74683136526563656970745665726966696572506172618152656d657465727360d01b60208201526002908190602601602060405180830381855afa1580156100ab573d6000803e3d6000fd5b5050506040513d601f19601f820116820180604052508101906100ce9190611098565b8361021f8460008190506008817eff00ff00ff00ff00ff00ff00ff00ff00ff00ff00ff00ff00ff00ff00ff00ff16901b6008827fff00ff00ff00ff00ff00ff00ff00ff00ff00ff00ff00ff00ff00ff00ff00ff0016901c1790506010817dffff0000ffff0000ffff0000ffff0000ffff0000ffff0000ffff0000ffff16901b6010827fffff0000ffff0000ffff0000ffff0000ffff0000ffff0000ffff0000ffff000016901c1790506020817bffffffff00000000ffffffff00000000ffffffff00000000ffffffff16901b6020827fffffffff00000000ffffffff00000000ffffffff00000000ffffffff0000000016901c17905060408177ffffffffffffffff0000000000000000ffffffffffffffff16901b6040827fffffffffffffffff0000000000000000ffffffffffffffff000000000000000016901c179050608081901b608082901c179050919050565b61022761042d565b60408051602081019590955284019290925260608301526080820152600360f81b60a082015260a20160408051601f198184030181529082905261026a916110e1565b602060405180830381855afa158015610287573d6000803e3d6000fd5b5050506040513d601f19601f820116820180604052508101906102aa9190611098565b6001600160e01b03191660e052506111869050565b600080806104138460008190506008817eff00ff00ff00ff00ff00ff00ff00ff00ff00ff00ff00ff00ff00ff00ff00ff16901b6008827fff00ff00ff00ff00ff00ff00ff00ff00ff00ff00ff00ff00ff00ff00ff00ff0016901c1790506010817dffff0000ffff0000ffff0000ffff0000ffff0000ffff0000ffff0000ffff16901b6010827fffff0000ffff0000ffff0000ffff0000ffff0000ffff0000ffff0000ffff000016901c1790506020817bffffffff00000000ffffffff00000000ffffffff00000000ffffffff16901b6020827fffffffff00000000ffffffff00000000ffffffff00000000ffffffff0000000016901c17905060408177ffffffffffffffff0000000000000000ffffffffffffffff16901b6040827fffffffffffffffff0000000000000000ffffffffffffffff000000000000000016901c179050608081901b608082901c179050919050565b608081901b956001600160801b0319909116945092505050565b60408051600680825260e082019092526000918291906020820160c08036833701905050905060027f12ac9a25dcd5e1a832a9061a082c15dd1d61aa9c4d553505739d0f5d65dc3be47f025aa744581ebe7ad91731911c898569106ff5a2d30f3eee2b23c60ee980acd46040516020016104b1929190918252602082015260400190565b60408051601f19818403018152908290526104cb916110e1565b602060405180830381855afa1580156104e8573d6000803e3d6000fd5b5050506040513d601f19601f8201168201806040525081019061050b9190611098565b8160008151811061051e5761051e6110f4565b60200260200101818152505060027f0707b920bc978c02f292fae2036e057be54294114ccc3c8769d883f688a1423f7f2e32a094b7589554f7bc357bf63481acd2d55555c203383782a4650787ff6642604051602001610588929190918252602082015260400190565b60408051601f19818403018152908290526105a2916110e1565b602060405180830381855afa1580156105bf573d6000803e3d6000fd5b5050506040513d601f19601f820116820180604052508101906105e29190611098565b816001815181106105f5576105f56110f4565b60200260200101818152505060027f0bca36e2cbe6394b3e249751853f961511011c7148e336f4fd974644850fc3477f2ede7c9acf48cf3a3729fa3d68714e2a8435d4fa6db8f7f409c153b1fcdf9b8b60405160200161065f929190918252602082015260400190565b60408051601f1981840301815290829052610679916110e1565b602060405180830381855afa158015610696573d6000803e3d6000fd5b5050506040513d601f19601f820116820180604052508101906106b99190611098565b816002815181106106cc576106cc6110f4565b60200260200101818152505060027f1b8af999dbfbb3927c091cc2aaf201e488cbacc3e2c6b6fb5a25f9112e04f2a77f2b91a26aa92e1b6f5722949f192a81c850d586d81a60157f3e9cf04f679cccd6604051602001610736929190918252602082015260400190565b60408051601f1981840301815290829052610750916110e1565b602060405180830381855afa15801561076d573d6000803e3d6000fd5b5050506040513d601f19601f820116820180604052508101906107909190611098565b816003815181106107a3576107a36110f4565b60200260200101818152505060027f2b5f494ed674235b8ac1750bdfd5a7615f002d4a1dcefeddd06eda5a076ccd0d7f2fe520ad2020aab9cbba817fcbb9a863b8a76ff88f14f912c5e71665b2ad5e8260405160200161080d929190918252602082015260400190565b60408051601f1981840301815290829052610827916110e1565b602060405180830381855afa158015610844573d6000803e3d6000fd5b5050506040513d601f19601f820116820180604052508101906108679190611098565b8160048151811061087a5761087a6110f4565b60200260200101818152505060027f0f1c3c0d5d9da0fa03666843cde4e82e869ba5252fce3c25d5940320b1c4d4937f214bfcff74f425f6fe8c0d07b307482d8bc8bb2f3608f68287aa01bd0b69e8096040516020016108e4929190918252602082015260400190565b60408051601f19818403018152908290526108fe916110e1565b602060405180830381855afa15801561091b573d6000803e3d6000fd5b5050506040513d601f19601f8201168201806040525081019061093e9190611098565b81600581518110610951576109516110f4565b602002602001018181525050600280604051610990907f72697363305f67726f746831362e566572696679696e674b65790000000000008152601a0190565b602060405180830381855afa1580156109ad573d6000803e3d6000fd5b5050506040513d601f19601f820116820180604052508101906109d09190611098565b60027f2d4d9aa7e302d9df41749d5507949d05dbea33fbb16c643b22f599a2be6df2e27f14bedd503c37ceb061d8ec60209fe345ce89830a19230301f076caff004d1926604051602001610a2e929190918252602082015260400190565b60408051601f1981840301815290829052610a48916110e1565b602060405180830381855afa158015610a65573d6000803e3d6000fd5b5050506040513d601f19601f82011682018060405250810190610a889190611098565b604080517f0967032fcbf776d1afc985f88877f182d38480a653f2decaa9794cbc3bf3060c60208201527f0e187847ad4c798374d0d6732bf501847dd68bc0e071241e0213bc7fc13db7ab918101919091527f304cfbd1e08a704a99f5e847d93f8c3caafddec46b7a0d379da69a4d112346a760608201527f1739c1b1a457a8c7313123d24d2f9192f896b7c63eea05a9d57f06547ad0cec8608082015260029060a00160408051601f1981840301815290829052610b46916110e1565b602060405180830381855afa158015610b63573d6000803e3d6000fd5b5050506040513d601f19601f82011682018060405250810190610b869190611098565b604080517f198e9393920d483a7260bfb731fb5d25f1aa493335a9e71297e485b7aef312c260208201527f1800deef121f1e76426a00665e5c4479674322d4f75edadd46debd5cd992f6ed918101919091527f090689d0585ff075ec9e99ad690c3395bc4b313370b38ef355acdadcd122975b60608201527f12c85ea5db8c6deb4aab71808dcb408fe3d1e7690c43d37b4ce6cc0166fa7daa608082015260029060a00160408051601f1981840301815290829052610c44916110e1565b602060405180830381855afa158015610c61573d6000803e3d6000fd5b5050506040513d601f19601f82011682018060405250810190610c849190611098565b604080517f03b03cd5effa95ac9bee94f1f5ef907157bda4812ccf0b4c91f42bb629f83a1c60208201527f1aa085ff28179a12d922dba0547057ccaae94b9d69cfaa4e60401fea7f3e0333918101919091527f110c10134f200b19f6490846d518c9aea868366efb7228ca5c91d2940d03076260608201527f1e60f31fcbf757e837e867178318832d0b2d74d59e2fea1c7142df187d3fc6d3608082015260029060a00160408051601f1981840301815290829052610d42916110e1565b602060405180830381855afa158015610d5f573d6000803e3d6000fd5b5050506040513d601f19601f82011682018060405250810190610d829190611098565b610dfd6002604051610db7907f72697363305f67726f746831362e566572696679696e674b65792e49430000008152601d0190565b602060405180830381855afa158015610dd4573d6000803e3d6000fd5b5050506040513d601f19601f82011682018060405250810190610df79190611098565b88610e93565b6040805160208101979097528601949094526060850192909252608084015260a083015260c0820152600560f81b60e082015260e20160408051601f1981840301815290829052610e4d916110e1565b602060405180830381855afa158015610e6a573d6000803e3d6000fd5b5050506040513d601f19601f82011682018060405250810190610e8d9190611098565b91505090565b600080805b8351811015610eed57610ee385858360018851610eb5919061110a565b610ebf919061110a565b81518110610ecf57610ecf6110f4565b602002602001015184610ef760201b60201c565b9150600101610e98565b5090505b92915050565b604080516002808252606082018352600092839291906020830190803683370190505090508381600081518110610f3057610f306110f4565b6020026020010181815250508281600181518110610f5057610f506110f4565b6020908102919091010152610f658582610f6e565b95945050505050565b60408051600080825260208201909252610f89848483610f91565b949350505050565b600080610fa4845161103d60201b60201c565b9050600060088261ffff16901c60088361ffff16901b1760f01b9050600286868684604051602001610fd9949392919061112b565b60408051601f1981840301815290829052610ff3916110e1565b602060405180830381855afa158015611010573d6000803e3d6000fd5b5050506040513d601f19601f820116820180604052508101906110339190611098565b9695505050505050565b600061ffff821115611070576040516306dfcc6560e41b8152601060048201526024810183905260440160405180910390fd5b5090565b6000806040838503121561108757600080fd5b505080516020909101519092909150565b6000602082840312156110aa57600080fd5b5051919050565b6000815160005b818110156110d257602081850181015186830152016110b8565b50600093019283525090919050565b60006110ed82846110b1565b9392505050565b634e487b7160e01b600052603260045260246000fd5b81810381811115610ef157634e487b7160e01b600052601160045260246000fd5b84815260006020820185516020870160005b8281101561115b57815184526020938401939091019060010161113d565b50505061116881866110b1565b6001600160f01b031994909416845250506002909101949350505050565b60805160a05160c05160e0516113b26111e0600039600081816087015281816107df015261084401526000818160e1015261091d01526000818161013901526108e401526000818161017901526108bc01526113b26000f3fe608060405234801561001057600080fd5b506004361061007d5760003560e01c806334baeab91161005b57806334baeab9146101115780638989fa2e146101345780639181e4b114610174578063ab750e751461019b57600080fd5b8063053c238d146100825780631599ead5146100c7578063258038e2146100dc575b600080fd5b6100a97f000000000000000000000000000000000000000000000000000000000000000081565b6040516001600160e01b031990911681526020015b60405180910390f35b6100da6100d5366004610ee3565b6101ae565b005b6101037f000000000000000000000000000000000000000000000000000000000000000081565b6040519081526020016100be565b61012461011f366004610f36565b6101c8565b60405190151581526020016100be565b61015b7f000000000000000000000000000000000000000000000000000000000000000081565b6040516001600160801b031990911681526020016100be565b61015b7f000000000000000000000000000000000000000000000000000000000000000081565b6100da6101a9366004610f9d565b61079a565b6101c56101bb828061101e565b83602001356107bc565b50565b6000610728565b7f30644e72e131a029b85045b68181585d2833e84879b9709143e1f593f000000181106101c5576000805260206000f35b600060405183815284602082015285604082015260408160608360076107d05a03fa915081610233576000805260206000f35b825160408201526020830151606082015260408360808360066107d05a03fa91505080610264576000805260206000f35b5050505050565b7f12ac9a25dcd5e1a832a9061a082c15dd1d61aa9c4d553505739d0f5d65dc3be485527f025aa744581ebe7ad91731911c898569106ff5a2d30f3eee2b23c60ee980acd460208601526000608086018661030887357f2e32a094b7589554f7bc357bf63481acd2d55555c203383782a4650787ff66427f0707b920bc978c02f292fae2036e057be54294114ccc3c8769d883f688a1423f84610200565b61035860208801357f2ede7c9acf48cf3a3729fa3d68714e2a8435d4fa6db8f7f409c153b1fcdf9b8b7f0bca36e2cbe6394b3e249751853f961511011c7148e336f4fd974644850fc34784610200565b6103a860408801357f2b91a26aa92e1b6f5722949f192a81c850d586d81a60157f3e9cf04f679cccd67f1b8af999dbfbb3927c091cc2aaf201e488cbacc3e2c6b6fb5a25f9112e04f2a784610200565b6103f860608801357f2fe520ad2020aab9cbba817fcbb9a863b8a76ff88f14f912c5e71665b2ad5e827f2b5f494ed674235b8ac1750bdfd5a7615f002d4a1dcefeddd06eda5a076ccd0d84610200565b61044860808801357f214bfcff74f425f6fe8c0d07b307482d8bc8bb2f3608f68287aa01bd0b69e8097f0f1c3c0d5d9da0fa03666843cde4e82e869ba5252fce3c25d5940320b1c4d49384610200565b50823581527f30644e72e131a029b85045b68181585d97816a916871ca8d3c208c16d87cfd4760208401357f30644e72e131a029b85045b68181585d97816a916871ca8d3c208c16d87cfd4703066020820152833560408201526020840135606082015260408401356080820152606084013560a08201527f2d4d9aa7e302d9df41749d5507949d05dbea33fbb16c643b22f599a2be6df2e260c08201527f14bedd503c37ceb061d8ec60209fe345ce89830a19230301f076caff004d192660e08201527f0967032fcbf776d1afc985f88877f182d38480a653f2decaa9794cbc3bf3060c6101008201527f0e187847ad4c798374d0d6732bf501847dd68bc0e071241e0213bc7fc13db7ab6101208201527f304cfbd1e08a704a99f5e847d93f8c3caafddec46b7a0d379da69a4d112346a76101408201527f1739c1b1a457a8c7313123d24d2f9192f896b7c63eea05a9d57f06547ad0cec8610160820152600087015161018082015260206000018701516101a08201527f198e9393920d483a7260bfb731fb5d25f1aa493335a9e71297e485b7aef312c26101c08201527f1800deef121f1e76426a00665e5c4479674322d4f75edadd46debd5cd992f6ed6101e08201527f090689d0585ff075ec9e99ad690c3395bc4b313370b38ef355acdadcd122975b6102008201527f12c85ea5db8c6deb4aab71808dcb408fe3d1e7690c43d37b4ce6cc0166fa7daa610220820152843561024082015260208501356102608201527f03b03cd5effa95ac9bee94f1f5ef907157bda4812ccf0b4c91f42bb629f83a1c6102808201527f1aa085ff28179a12d922dba0547057ccaae94b9d69cfaa4e60401fea7f3e03336102a08201527f110c10134f200b19f6490846d518c9aea868366efb7228ca5c91d2940d0307626102c08201527f1e60f31fcbf757e837e867178318832d0b2d74d59e2fea1c7142df187d3fc6d36102e08201526020816103008360086107d05a03fa9051169695505050505050565b604051610380810160405261074060008401356101cf565b61074d60208401356101cf565b61075a60408401356101cf565b61076760608401356101cf565b61077460808401356101cf565b61078160a08401356101cf565b61078e818486888a61026b565b90508060005260206000f35b6107b684846107b16107ac86866109d7565b610b40565b6107bc565b50505050565b6107ca60046000848661106c565b6107d391611096565b6001600160e01b0319167f00000000000000000000000000000000000000000000000000000000000000006001600160e01b031916146108775761081b60046000848661106c565b61082491611096565b604051632e2ce35360e21b81526001600160e01b031991821660048201527f0000000000000000000000000000000000000000000000000000000000000000909116602482015260440160405180910390fd5b60008061088383610c9f565b90925090506000610897856004818961106c565b8101906108a49190611190565b8051602080830151604080850151815160a0810183527f0000000000000000000000000000000000000000000000000000000000000000608090811c82527f0000000000000000000000000000000000000000000000000000000000000000811c9582019590955289851c8184015288851c60608201527f00000000000000000000000000000000000000000000000000000000000000009481019490945290516334baeab960e01b815294955060009430946334baeab99461096d9491939192600401611277565b602060405180830381865afa15801561098a573d6000803e3d6000fd5b505050506040513d601f19601f820116820180604052508101906109ae91906112fc565b9050806109ce5760405163439cc0cd60e01b815260040160405180910390fd5b50505050505050565b6109df610e9e565b6040518060a00160405280848152602001600280604051610a17907072697363302e53797374656d537461746560781b815260110190565b602060405180830381855afa158015610a34573d6000803e3d6000fd5b5050506040513d601f19601f82011682018060405250810190610a57919061131e565b60408051602081019290925260009082018190526060820152600160f81b606482015260660160408051601f1981840301815290829052610a9791611337565b602060405180830381855afa158015610ab4573d6000803e3d6000fd5b5050506040513d601f19601f82011682018060405250810190610ad7919061131e565b8152602001604051806040016040528060006002811115610afa57610afa611366565b8152602001600060ff1681525081526020016000801b8152602001610b3560405180604001604052808681526020016000801b815250610e06565b905290505b92915050565b6000600280604051610b6a907172697363302e52656365697074436c61696d60701b815260120190565b602060405180830381855afa158015610b87573d6000803e3d6000fd5b5050506040513d601f19601f82011682018060405250810190610baa919061131e565b60608401518451602086015160808701516040880151516018906002811115610bd557610bd5611366565b60408a810151602090810151825191820199909952908101969096526060860194909452608085019290925260a084015263ffffffff909116901b60e01b6001600160e01b03191660c082015260f89190911b6001600160f81b03191660c4820152600160fa1b60c882015260ca015b60408051601f1981840301815290829052610c5f91611337565b602060405180830381855afa158015610c7c573d6000803e3d6000fd5b5050506040513d601f19601f82011682018060405250810190610b3a919061131e565b60008080610dec8460008190506008817eff00ff00ff00ff00ff00ff00ff00ff00ff00ff00ff00ff00ff00ff00ff00ff16901b6008827fff00ff00ff00ff00ff00ff00ff00ff00ff00ff00ff00ff00ff00ff00ff00ff0016901c1790506010817dffff0000ffff0000ffff0000ffff0000ffff0000ffff0000ffff0000ffff16901b6010827fffff0000ffff0000ffff0000ffff0000ffff0000ffff0000ffff0000ffff000016901c1790506020817bffffffff00000000ffffffff00000000ffffffff00000000ffffffff16901b6020827fffffffff00000000ffffffff00000000ffffffff00000000ffffffff0000000016901c17905060408177ffffffffffffffff0000000000000000ffffffffffffffff16901b60408277ffffffffffffffff0000000000000000ffffffffffffffff1916901c179050608081901b608082901c179050919050565b608081901b956001600160801b0319909116945092505050565b6000600280604051610e2a906b1c9a5cd8cc0b93dd5d1c1d5d60a21b8152600c0190565b602060405180830381855afa158015610e47573d6000803e3d6000fd5b5050506040513d601f19601f82011682018060405250810190610e6a919061131e565b83516020808601516040805192830194909452928101919091526060810191909152600160f91b6080820152608201610c45565b6040805160a08101825260008082526020820152908101610ecf604080518082019091526000808252602082015290565b815260006020820181905260409091015290565b600060208284031215610ef557600080fd5b813567ffffffffffffffff811115610f0c57600080fd5b820160408185031215610f1e57600080fd5b9392505050565b8060408101831015610b3a57600080fd5b6000806000806101a08587031215610f4d57600080fd5b610f578686610f25565b935060c0850186811115610f6a57600080fd5b604086019350610f7a8782610f25565b925050856101a086011115610f8e57600080fd5b50919490935090916101000190565b60008060008060608587031215610fb357600080fd5b843567ffffffffffffffff811115610fca57600080fd5b8501601f81018713610fdb57600080fd5b803567ffffffffffffffff811115610ff257600080fd5b87602082840101111561100457600080fd5b602091820198909750908601359560400135945092505050565b6000808335601e1984360301811261103557600080fd5b83018035915067ffffffffffffffff82111561105057600080fd5b60200191503681900382131561106557600080fd5b9250929050565b6000808585111561107c57600080fd5b8386111561108957600080fd5b5050820193919092039150565b80356001600160e01b031981169060048410156110c7576001600160e01b0319600485900360031b81901b82161691505b5092915050565b634e487b7160e01b600052604160045260246000fd5b6040516060810167ffffffffffffffff81118282101715611107576111076110ce565b60405290565b604051601f8201601f1916810167ffffffffffffffff81118282101715611136576111366110ce565b604052919050565b600082601f83011261114f57600080fd5b611159604061110d565b80604084018581111561116b57600080fd5b845b8181101561118557803584526020938401930161116d565b509095945050505050565b60006101008284031280156111a457600080fd5b5060006111af6110e4565b6111b9858561113e565b815284605f8501126111c9578182fd5b60406111d48161110d565b8060c08701888111156111e5578586fd5b6040880195505b8086101561120f576111fe898761113e565b8352948301946020909201916111ec565b81602086015261121f898261113e565b60408601525092979650505050505050565b8060005b60028110156107b6578151845260209384019390910190600101611235565b8060005b60058110156107b6578151845260209384019390910190600101611258565b6101a081016112868287611231565b604082018560005b60028110156112d55781518360005b60028110156112bc57825182526020928301929091019060010161129d565b505050604092909201916020919091019060010161128e565b5050506112e560c0830185611231565b6112f3610100830184611254565b95945050505050565b60006020828403121561130e57600080fd5b81518015158114610f1e57600080fd5b60006020828403121561133057600080fd5b5051919050565b6000825160005b81811015611358576020818601810151858301520161133e565b506000920191825250919050565b634e487b7160e01b600052602160045260246000fdfea264697066735822122006b38fb0fa3454fbdb8b76b11444ade188a59c3fe9077bd45cd78ca5e7e45cdb64736f6c634300081c0033","linkReferences":{}},"methodIdentifiers":{"approve(address,uint256)":"095ea7b3","balanceOf(address)":"70a08231","getApproved(uint256)":"081812fc","isApprovedForAll(address,address)":"e985e9c5","name()":"06fdde03","ownerOf(uint256)":"6352211e","prover()":"32a8f30f","safeTransferFrom(address,address,uint256)":"42842e0e","safeTransferFrom(address,address,uint256,bytes)":"b88d4fde","setApprovalForAll(address,bool)":"a22cb465","shiftOffset(bytes,uint256,uint256)":"e5e22773","supportsInterface(bytes4)":"01ffc9a7","symbol()":"95d89b41","tokenURI(uint256)":"c87b56dd","transferFrom(address,address,uint256)":"23b872dd","verifier()":"2b7ac3f3","verify(((bytes4,bytes32[8],uint8),bytes32,uint256,(address,bytes4,uint256,bytes32)),string,address)":"6663d49b"},"id":36}