{"abi":[{"type":"function","name":"JSON_GET_ARRAY_LENGTH","inputs":[],"outputs":[{"name":"","type":"address","internalType":"address"}],"stateMutability":"view"},{"type":"function","name":"JSON_GET_BOOL_PRECOMPILE","inputs":[],"outputs":[{"name":"","type":"address","internalType":"address"}],"stateMutability":"view"},{"type":"function","name":"JSON_GET_INT_PRECOMPILE","inputs":[],"outputs":[{"name":"","type":"address","internalType":"address"}],"stateMutability":"view"},{"type":"function","name":"JSON_GET_STRING_PRECOMPILE","inputs":[],"outputs":[{"name":"","type":"address","internalType":"address"}],"stateMutability":"view"},{"type":"function","name":"REGEX_CAPTURE_PRECOMPILE","inputs":[],"outputs":[{"name":"","type":"address","internalType":"address"}],"stateMutability":"view"},{"type":"function","name":"REGEX_MATCH_PRECOMPILE","inputs":[],"outputs":[{"name":"","type":"address","internalType":"address"}],"stateMutability":"view"},{"type":"function","name":"VERIFY_AND_PARSE_PRECOMPILE","inputs":[],"outputs":[{"name":"","type":"address","internalType":"address"}],"stateMutability":"view"},{"type":"function","name":"VERIFY_EMAIL_PRECOMPILE","inputs":[],"outputs":[{"name":"","type":"address","internalType":"address"}],"stateMutability":"view"}],"bytecode":{"object":"0x61011f610039600b82828239805160001a607314602c57634e487b7160e01b600052600060045260246000fd5b30600052607381538281f3fe730000000000000000000000000000000000000000301460806040526004361060885760003560e01c8063c5d27ef611605f578063c5d27ef61460c9578063d497d1751460d1578063da758a651460d9578063f6fa0f231460e157600080fd5b806355d247be14608d5780636add0a571460b15780638cf32b431460b9578063ac937b1a1460c1575b600080fd5b609561010381565b6040516001600160a01b03909116815260200160405180910390f35b609561010081565b609561010581565b609561011081565b609561010181565b609561011181565b609561010281565b60956101048156fea2646970667358221220744bab6bc99281670d3b9f3ef9e992bde2a6248d998857536e05ef972ae1143b64736f6c634300081c0033","linkReferences":{}},"methodIdentifiers":{"JSON_GET_ARRAY_LENGTH()":"8cf32b43","JSON_GET_BOOL_PRECOMPILE()":"f6fa0f23","JSON_GET_INT_PRECOMPILE()":"55d247be","JSON_GET_STRING_PRECOMPILE()":"da758a65","REGEX_CAPTURE_PRECOMPILE()":"d497d175","REGEX_MATCH_PRECOMPILE()":"ac937b1a","VERIFY_AND_PARSE_PRECOMPILE()":"6add0a57","VERIFY_EMAIL_PRECOMPILE()":"c5d27ef6"},"id":46}